S00F0000534420436172642E73726563E4
S1132000F02A0020512400004D2400004D2400003B
S113201000000000000000000000000000000000BC
S11320200000000000000000000000004D2400003B
S113203000000000000000004D2400004D240000BA
S11320404D2400004D2400004D2400004D240000C8
S11320504D2400004D2400004D2400004D240000B8
S11320604D2400004D2400004D2400004D240000A8
S11320704D2400004D2400004D2400004D24000098
S11320804D2400004D2400004D2400004D24000088
S11320904D2400004D2400004D2400004D24000078
S11320A04D2400004D2400004D2400004D24000068
S11320B00000000010B5064C2378002B07D1054B17
S11320C0002B02D0044800E000BF0123237010BDA0
S11320D03C0400200000000000550000084B10B52F
S11320E0002B03D00749084800E000BF07480368F5
S11320F0002B00D110BD064B002BFBD09847F9E70D
S113210000000000400400200055000000550000BD
S11321100000000010B5104B984710490B6880224E
S1132120920113430B600E4B1A60962080010D4BF5
S113213098470D480D4CA0470D4B98470D48A047B4
S11321400D4B9847002803D10C48084B984710BD05
S11321500B48064B9847FEE7D1220000004400419B
S113216018440041AD4600002C4E000071470000A9
S11321708D450000404E0000013F00005C4E000011
S1132180804E000010B59AB03648374B984700226D
S113219036493748374B9847374B1870002803D0D7
S11321A03648314B9847FEE735482F4CA047354811
S11321B0A0470A2234493548354B98472E4B1870AE
S11321C0002803D03348284B9847FEE73248264B73
S11321D09847324B192232492C48324CA047264B9F
S11321E01870002803D030481F4B9847FEE7274853
S11321F02E4B9847204B1870002803D02C481A4BBC
S11322009847FEE72B48184CA0472B48A0470122CB
S11322101D491E481E4B9847174B1870002803D0C1
S11322202648114B9847FEE725480F4B984702E094
S113223001A80D4B9847154A642101A8214B9847E2
S11322400028F5D11148194B98470B4B18700028FA
S113225003D01D48044B9847FEE71C48024B98479F
S1132260FEE7C046A04E000071470000584E000033
S11322706C040020893600009C060020B84E000043
S1132280D84E0000F84E000000000020A4060020F4
S1132290ED360000184F00003C4F0000A00600205F
S11322A0584F0000293A0000744F0000C93C000058
S11322B08C4F0000B04F0000D84F0000F84F0000D2
S11322C01C500000F13C0000385000005C5000003D
S11322D030B5504A53681E218B431C390B4353605D
S11322E0082204231A4380239B0013439BB24A4AC7
S11322F09382938A0B439382474BDB689B07FBD5FE
S1132300012380214900194344488160A022D2005E
S11323101A4380235B021A4380239B0213434360C6
S11323203E4B5B78DB09FBD18023DB01802252002A
S113233013433A4A5380384BDB68DB06FBD5022251
S1132340354B9A84344BDB68DB06FBD5344B354A7A
S11323501A43F823DB0513432F4AD3622E4BDB6861
S1132360DB06FBD5304B1A682B498B6A920E92021E
S11323702E48034013438B62274BDB68DB06FBD5F7
S1132380254A938C2A490B439384244880231B03B6
S11323908022920280214902E024E40021430A437E
S11323A0134343601D4B5B78DB09FBD1214C802335
S11323B01B068022D20580214905E020C00488251F
S11323C06D02284301430A431343A362124B1A6A62
S11323D019490A401A621A6A80218A431A6203233D
S11323E0803119430D488160C022D2001A438023F2
S11323F05B021A4380239B0213434360074B5B78C1
S1132400DB09FBD10D4B00221A725A729A72DA72EE
S113241030BDC0460040004100080040000C0040B0
S11324200000FF01B905000024608000FF03FFFFE6
S11324300408000000440041FFFCFFFF00040040CA
S1132440BFF35F8F01380028FAD17047FEE7000020
S1132450F8B5234A234B9A4209D0224B204A03E081
S113246011681960043304321F498B42F8D31F4B9F
S113247002E000221A6004331D4A9342F9D31D4A34
S1132480FF211D4B8B439360FD3990235B001B4A56
S1132490D1501B4AD3780325AB4302242343D37082
S11324A0D3780C27BB4308263343D370154B987B52
S11324B030229043202210439873997BB9433143CF
S11324C099739A7BAA4322439A730F4A51688023D3
S11324D00B4353600D4B98470D4B9847FEE7C0469E
S11324E000550000000000203C0400203C040020B3
S11324F0EC0A002000ED00E0002000000070004124
S11325000050004100480041004000418D4C000053
S1132510453D0000002801D1002070470120FCE760
S113252010B5012801D0012010BD044B98470228A2
S1132530FAD00028F8D00120F6E7C046013F000099
S113254070B50E0015001C00002801D0042070BDD9
S1132550002B01D10420FAE7012B0BD00748084BCC
S11325609847E2B231002800064B98470028EED085
S11325700120ECE71000044B9847F7E78050000077
S1132580714700004D4200008541000070B50E0007
S113259015001C00002801D0042070BD002B01D1BF
S11325A00420FAE7012B0BD009480A4B9847E2B202
S11325B031002800084B98470028EED00120ECE7B2
S11325C00648044B984731002800054B9847F3E729
S11325D09850000071470000BD4300008C5000007B
S11325E0D942000010B584B01400002802D00420A1
S11325F004B010BD012909D0002905D0022949D011
S113260003294CD00420F3E70020F1E795220021B0
S11326104920354B9847002801D00120E8E7694656
S11326204930324B984700285AD06B461B789B0997
S1132630012B24D06B465A790F2313406A46927AB1
S1132640D2099B186A46517A490006220A409B180F
S1132650DBB20233DBB26A46127A92096946C9795F
S113266089005218694689798902C0200001014015
S113267052180132093B9A4022600020B8E76B46A9
S11326805B7A6A46127A12029B1801339B0223601A
S11326900020ADE780239B0013800020A8E795224B
S11326A000214920104B9847002801D001209FE7C2
S11326B0694649300D4B9847002813D06B469A7AE7
S11326C052007E2313406A46D27AD2099B18013302
S11326D06A46527B9209013A93402360002087E7BF
S11326E0012085E7012083E7113E00004D410000F1
S11326F00020704704E00A780270013101301A00AA
S1132700531E002AF7D1704702E0017001301A000D
S1132710531E002AF9D1704770B50300002001E070
S113272029003300541E002A07D05E1C18784D1C63
S11327300B78C01A22000028F2D070BD00E00130EE
S11327400378002B01D08B42F9D11800704710B5E3
S11327500400CA7E1202887E10432378032B00D023
S113276010BD4A7D12020B7D13431B041843F7E787
S113277081768BB21B0AC376090C0175090A41756F
S113278070470000F8B5DE4657464E464546E0B56C
S113279089460C6800E0013423782F2BFBD05C2B96
S11327A0F9D0836998460B2220211800554B98478D
S11327B0002600230827002292465A1C9346E55C13
S11327C0202D66D92F2D64D05C2D62D02E2D01D002
S11327D0B74213D8082F00D08CE02E2D06D0062047
S11327E03CBC90469946A246AB46F8BD53469B0076
S11327F0DBB29A463E005B460337DEE76AB2002A44
S11328001FDB2A007F32D2B21E2A04D92A002032CA
S1132810D2B21C2A1BD802335A46A15C0A00403AA1
S1132820D2B23E2A04D90A00803AD2B27C2A63D8B2
S11328307A1E964262D2721C4046855581540236F5
S1132840BBE7032251461143CAB29246D9E7290095
S11328502D482E4B9847002852D12B00413BDBB228
S1132860192B09D8022352461A43D3B29A46434637
S11328709D5501365B46A0E72B00613BDBB2192B6B
S1132880F5D8012352461A43D3B29A46203DEDB2FD
S1132890EDE75C444B461C60202D04D80423002E35
S11328A003D106209CE70023F9E742461278E52A83
S11328B00FD0082F11D0032251460A40012A11D00B
S11328C00C2251460A40042A10D04246D3720020FA
S11328D086E7E03A41460A70EBE752469200D2B2EC
S11328E09246E8E710221343DBB2E9E708221343D8
S11328F0DBB2EAE7062073E7062071E706206FE7FC
S113290006206DE709270000A45000003D270000C1
S113291010B50168002901D00A0003E001235B42DD
S113292008E001321378202B01D93A2BF9D13A2B44
S113293002D00023180010BD4C1C0B78303B092B2F
S113294006D8A24207D1002B08D101320260F1E778
S113295001235B42EEE701235B42EBE701235B4289
S1132960E8E70000F0B583B004000379002B02D13E
S1132970002003B0F0BDC56A30239C4684446346FE
S113298061460193407801232A000F4EB047002886
S113299016D100232371236AEB1AA269934211D240
S11329A0E67809E0A3699C466544607801232A001F
S11329B00199054FB847013E012EF3D80020D8E70E
S11329C00120D6E70020D4E78D250000F8B50500E6
S11329D00E00C36A8B4213D00A4B9847041E01D0E1
S11329E02000F8BD29003031687801233200064FF9
S11329F0B847002802D0013401267642EE62EFE7A0
S1132A000024EDE7652900004125000010B504000D
S1132A1000230371013BC3621D4B9847002801D07A
S1132A20032010BD1B4BE25C12021B4BE35C1343FF
S1132A301BB21A4A934201D00220F2E76923E35CF5
S1132A401B066822A25C120413436722A25C1202D2
S1132A5013436622A25C13431B021B0A104A9342CF
S1132A6014D08523E35C1B068422A25C1204134366
S1132A708322A25C120213438222A25C13431B0230
S1132A801B0A074A9342CCD00120CAE70020C8E7BA
S1132A90CD2900002F0200002E02000055AAFFFFDE
S1132AA04641540010B5002814D00368002B13D0FD
S1132AB01A78002A01D1092010BDD9888288914250
S1132AC001D00920F8E75878054B9847C30705D586
S1132AD00320F1E70920EFE70920EDE70020EBE709
S1132AE015250000F0B5DE4657464E464546E0B58E
S1132AF085B007001600002303600800CA4B9847FE
S1132B00041E00DAC0E18300C84A9D58002D00D19C
S1132B10C2E13D602B78002B0DD06878C44B9847F8
S1132B20C30708D4002E00D1B8E1430701D50A2019
S1132B30ABE10020A9E100232B70E0B26870BD4B2B
S1132B409847C30701D503209FE1002E03D0430714
S1132B5001D50A2099E100212800B74B98470128A4
S1132B6022D00026032800D19AE1002830D00D207D
S1132B708BE100238A00684613500131032915D8DC
S1132B802A0030320B01BF33FF33D3181A79002ADD
S1132B90EFD0DA7A1206987A00040243587A0002D7
S1132BA002431B7A1343E5E70021E7E7002408E02A
S1132BB031002800A04B98470028D3D00134032CBF
S1132BC0D0D8A3006A469E58002EF1D10220F3E724
S1132BD03C23EA5C1202013BEB5C13431BB28022F0
S1132BE09200934201D00D204FE14723EB5C1B027E
S1132BF0BB3AFF3AAC5C1C430DD15723EC5C240672
S1132C00013BEB5C1B041C435523EB5C1B021C4384
S1132C105423EB5C1C43AC614023EF5CEF707B1EE0
S1132C20DBB2012B01D90D202FE167433D23E95C81
S1132C30A970002901D10D2027E14B1E0B4201D0C0
S1132C400D2022E14223EB5C1B024122AA5C1A43C1
S1132C5093462A8113001B0700D023E14423EB5C35
S1132C601B024322A85C18430DD15323E85C0006E1
S1132C70013BEB5C1B0418435123EB5C1B02184320
S1132C805023EB5C18433F23EB5C1B023E22AA5CFF
S1132C901A43914600D107E1BB185A4612099846D7
S1132CA09044404500D201E14346C01A634B984723
S1132CB0002800D1FCE0624B984200D99FE0012338
S1132CC09A46604B984201D903239A4602306861C0
S1132CD0EE614B46F3182B624246B218AA62524682
S1132CE0032A00D08EE05B46002B00D0E2E05F3385
S1132CF0EB5C1B065B32AA5C120413435D22AA5CE4
S1132D00120213435C22AA5C13436B6280004E4B95
S1132D109C466044400A844200D2CFE001235B42D7
S1132D202B61EB6081336B715346032B5DD15E33B2
S1132D30EA5C1202013BEB5C13431BB2012B54D13E
S1132D40711C2800414B984700284ED100236B7119
S1132D503F4BEA5C12023F4BEB5C13431BB23E4A0F
S1132D60934242D13323EB5C1B063222AA5C120449
S1132D7013433122AA5C120213433022AA5C134388
S1132D80364A934231D1364BEB5C1B06354AAA5C7A
S1132D9012041343344AAA5C12021343852292009C
S1132DA0AA5C1343314A93421FD1314BEB5C1B069F
S1132DB0304AAA5C120413432F4AAA5C120213433A
S1132DC086229200AA5C13432B612C4BEB5C1B06FE
S1132DD02B4AAA5C120413432A4AAA5C1202134324
S1132DE087229200AA5C1343EB6053462B700F4A70
S1132DF0938801339BB29380EB80002045E002234B
S1132E009A465EE75A46002A56D0FF186F62534628
S1132E10022B01D140007AE7032343435B080122DC
S1132E201040181873E7C046112900005804002008
S1132E3015250000212500000D2A00008D47000003
S1132E40F50F0000F5FF0000FF010000CD29000090
S1132E502F0200002E02000055AAFFFF52526141CA
S1132E601702000016020000150200007272416190
S1132E701B0200001A020000190200001F020000D9
S1132E801E0200001D0200000B2005B03CBC904651
S1132E909946A246AB46F0BD0C20F6E70020F4E7C5
S1132EA00120F2E70D20F0E70D20EEE70D20ECE71E
S1132EB00D20EAE70D20E8E70D20E6E70D20E4E722
S1132EC070B505002E4B9847041E0AD12B78032BAE
S1132ED009D06878002200212A4B9847002800D0A6
S1132EE00124200070BD6B79012BF2D12E00303605
S1132EF08022920000213000234B98475522234B17
S1132F00EA545532224BEA54DE3BFF3B7A3AAB5447
S1132F100132AB540F330132AB540F3233216A54B4
S1132F203F318520800029541A4829541A496A548B
S1132F301A4AAB542B690132AB549AB2120A18499B
S1132F406A54190C174AA9541B0E174AAB54EB6860
S1132F500132AB549AB2120A14496A54190C144A35
S1132F60A9541B0E134AAB54EB695A1CEA626878E5
S1132F7001233100104EB04700236B71A9E7C0460E
S1132F8065290000E5250000092700002E02000045
S1132F902F020000150200001602000017020000B4
S1132FA0190200001A0200001B0200001D020000AA
S1132FB01E0200001F0200008D2500000239436933
S1132FC0023B994204D283785943806A08187047B7
S1132FD00020FCE7F8B505000C00012972D943690B
S1132FE0994271D20378022B32D0032B49D0012BA2
S1132FF001D0012069E04E088E19710A036A9C46CB
S11330006144324B9847002802D0012040425CE0E2
S1133010771CF305DB0DEB1830331E78790A2B6A25
S11330209C4661442800294B9847002802D001207F
S113303040424AE0FF05FF0DED19303528780002C3
S11330403043E30701D500093FE00005000D3CE0F3
S1133050090A036A9C4661441C4B9847002802D025
S11330600120404231E06400FF235B001C40230048
S11330703033EB185B781B022C193034207818435A
S113308023E0C909036A9C466144104B9847002811
S113309002D00120404218E0A400FE235B001C4043
S11330A023003033EB18D87800069A7812041043C2
S11330B05B781B0218432C19303423781843000121
S11330C0000902E0012000E00120F8BDCD29000044
S11330D0F8B505000E00E9808468012C3DD0036832
S11330E05A69944201D3022038E0002C02D11A78A4
S11330F0032A06D0002C0CD11A89964203D302204D
S11331002CE05C6AF6E7586AEC60002819D10220CA
S113311024E09F783F01BE420ED321002868134B60
S113312098470400431C1AD001281AD92B685B69FC
S1133130984218D2F61BEEE7210028680C4B9847FA
S1133140E2E73309C01828612B6830330F22164098
S113315076019E196E61002000E00220F8BD012076
S1133160FCE70220FAE70220F8E7C046D52F00006A
S1133170BD2F0000F0B5C64600B506000C001500D2
S1133180012900D88DE04369994201D3022089E0E6
S11331900378022B4DD0032B63D0012B01D00220E6
S11331A080E04F08CF19790A036A9C4661443F4B7B
S11331B09847002876D17B1C9846FF05FF0D012314
S11331C01C4027D0F319303300229A560F231340A2
S11331D02A01FF2109010A401343DBB2F7193037F2
S11331E03B70012333714346590A336A9C46614458
S11331F030002E4B9847002854D14346DB05DB0DA5
S1133200002C09D02D09EDB2F31830331D700123C1
S1133210337147E0EBB2E1E7F2183032127852B280
S11332200F218A432D0A69B20F250D401543EDB2D3
S1133230EAE7090A036A9C4661441C4B9847002844
S113324030D16400FF235B001C4023003033F318AB
S1133250341930342570ADB22D0A5D7001233371F9
S113326020E0C909036A9C466144104B9847002832
S113327018D1A400FE235B001C4023003033F31854
S1133280DA78341930341209120715432570AAB2BA
S1133290120A5A702A0C9A702D0EDD7001233371B4
S11332A000E0022004BC9046F0BDC046CD290000D9
S11332B0F8B505000F1E07D1C668002E0FD043696C
S11332C09E420DD301260BE0264B9847012840D996
S11332D0431C43D06B69984240D33E0000E0012672
S11332E034000BE0210028001E4B984700280DD025
S11332F0431C33D0012831D0B4422ED001346B6941
S11333009C42EFD3012E26D90224EBE7164A210072
S11333102800164B9847002801D1002F0DD1002812
S113332011D1EC602B695A1C19D0013B2B616B79CC
S1133330012213436B71200010E0220039002800A1
S11333400A4B9847EBE7012801D0012006E0023838
S113335004E0012002E0002000E00020F8BD20008D
S1133360FCE7C046D52F0000FFFFFF0F75310000BA
S1133370F8B5CE46474680B506000D00C488013432
S1133380230404D104200CBC90469946F8BD03697B
S1133390002B01D10420F6E70F27274011D1013378
S11333A00361C168002905D103681B899C4208D3C5
S11333B00420E8E7230900688278013A1A4090461D
S11333C007D0F480336830337F01DF197761002040
S11333D0D9E72C4B984781460300012846D901338D
S11333E046D030684369994538D3002D01D1042073
S11333F0C9E7F168244B98478146031E01D1072091
S1133400C1E7012836D0013336D030681F4B9847C6
S1133410002833D1306830308022920000211C4BC8
S113342098473568494628001A4B9847E86233683C
S11334309A7890450ED201221A713068134B98473E
S113344000281DD13268D36A0133D36201239C461C
S1133450E044ECE7DA6A4146521ADA624B46F3601A
S1133460494630680B4B98473061AAE702208AE747
S1133470012088E7022086E7012084E7012082E713
S1133480012080E7D52F0000B1320000652900003B
S113349009270000BD2F000070B505000021114B65
S11334A09847041E07D0200070BD002128000E4B51
S11334B09847041EF7D1296928680C4B9847041EC5
S11334C0F1D168690378002B09D0C37A1B07ECD4C7
S11334D00B22A969064B98470028E6D1E3E70424A8
S11334E0E1E7C046D130000071330000CD2900006F
S11334F01927000010B582B0040001910B782F2B1E
S11335001FD05C2B1DD00023A360019B1B781F2BB5
S11335101AD901A92000144B984700281AD1200079
S1133520124B9847A369DB7A002815D15B0711D4A5
S11335306169CB7ADB0615D520680D4B9847A060EE
S1133540E7E701310191DEE700212000094B9847AC
S11335500023636102B010BD0428FBD15B07F9D4DA
S11335600520F7E70520F5E78527000099340000DA
S11335704F270000D130000070B504000E00002178
S1133580104B9847002818D1002508E00135B542B2
S113359013D0012120000C4B984700280DD121693C
S11335A020680A4B9847002807D163691B78E52BEC
S11335B0ECD0002BEAD00025EBE7042800D070BD46
S11335C00330FCE7D130000071330000CD29000046
S11335D070B5050001210D4B9847041E01D0200051
S11335E070BD296928680A4B9847041EF7D1202228
S11335F000216869074B98470B22A9696869064B43
S113360098472B6801221A71E9E7C0467935000012
S1133610CD29000009270000F5260000F8B50400B4
S11336200D00012925D94369994201D3022721E0DC
S1133630002700E0350063699D421BD22900200069
S11336400F4B9847061E15D0012815D0431C15D0E2
S11336500022290020000B4B9847071E0AD123693A
S11336605A1CE7D001332361637901221343637148
S1133670E0E702273800F8BD0227FBE70127F9E756
S1133680D52F00007531000010B584B00190009171
S11336901400039103A8124B984700281BDB8300F6
S11336A0104A9B58002B01D000221A70019B002B5A
S11336B001D000221A70019B80000A4A8350002B1B
S11336C00CD0012C01D0002006E00022694601A89C
S11336D0054B984700E00B2004B010BD0020FBE729
S11336E01129000058040020E52A0000F0B5CE4658
S11336F0474680B58DB0050001911600002800D121
S1133700A3E0002303601F2717401E22324001A9B3
S113371005A8514B9847041E00D097E002AB0B93C9
S1133720019905A84D4B9847041E0A9B984601D160
S1133730002B3BD01C23334279D0002C3DD0042CE9
S113374036D008231F43FFB20A9B9846002C01D1B0
S11337503B073DD4002C09D13B0702D520231F434E
S1133760FFB2059BDB6AEB6143462B62002C6DD1F3
S1133770AF710027EF71059E41463000384B9847E2
S113378028614346DB7F1B064246927F12041343A3
S11337904246527F120213434246127F1343EB60A8
S11337A0AF60AF612E60F388AB804FE00634C1E7B1
S11337B005A82C4B98470400C3E74346DB7A112243
S11337C01A4203D17307C1D50824BFE70724BDE714
S11337D0254B98474346987383B21B0A4246D373DA
S11337E0030C1374000E50740023D37213775377B1
S11337F09377D37741460598194B984706000021E3
S113380040461A4B9847059801230371002EA1D016
S1133810C36A99463100164B9847041E9AD10598FD
S1133820013EC6604946134B9847040092E7002CBA
S113383090D14346DB7ADA0605D4B2078AD5DB0792
S113384088D5072486E7042484E7092420000DB0E2
S11338500CBC90469946F0BDE52A0000F534000002
S11338604F270000D1350000F12600007127000029
S11338701D360000CD290000F0B5DE4657464E4601
S11338804546E0B583B004000D0017001E00002378
S113389033605F4B98470090002808D1E379002BF0
S11338A000D0B2E0A379DB0709D407230093009882
S11338B003B03CBC90469946A246AB46F0BDE368D3
S11338C0A2689B1ABB4200D21F00A84653E061695C
S11338D0504B98475FE00223E3710093E7E701232D
S11338E0E3710093E3E70223E3710093DFE701232D
S11338F0E3710093DBE7400240442100243180223D
S11339009200454B984775E0A269904219D0A3797B
S11339105B060CD5210024315B46587801233F4DCA
S1133920A847002869D1A37940229343A3712100B9
S113393024312368587801234A46394DA847002882
S11339405FD14B46A361A368D905C90D8025AD009D
S11339506D1AAF4200D23D002031611804312A00B3
S113396040462D4B9847A844A3685B19A36033686D
S11339705B1933607F1B002F99D0A168CB05E2D17E
S11339804A0A20688378013BDBB21A40924607D189
S113399000299CD1206901289DD9431C9FD06061D6
S11339A023689B46616918001E4B984700289AD0EB
S11339B0504481467A0A0192A6D053469446634401
S11339C05A469278934202D95346D31A01935B46DE
S11339D05878019B4A464146114DA847002886D194
S11339E0A3795B0606D5A3694A46981A019B8342CC
S11339F000D980E7019B5D02B5E70123E3710093E1
S1133A0055E70123E371009351E700934FE7C04664
S1133A10A52A0000D52F0000F52600008D25000002
S1133A2041250000BD2F0000F0B5DE4657464E4646
S1133A304546E0B583B004000D0017001E000023C6
S1133A4033606F4B98470090002808D1E379002B2E
S1133A5000D0D2E0A3799B0709D4072300930098F0
S1133A6003B03CBC90469946A246AB46F0BDA36861
S1133A70DA19934200D90027A8465DE0614B9847C4
S1133A8003006BE061695F4B9847030066E0013314
S1133A90E3710093E3E70233E3710093DFE721006E
S1133AA02431236858780123A269574DA847002878
S1133AB004D1A37940229343A3715DE00123E37110
S1133AC00093CCE70223E3710093C8E70123E37179
S1133AD00093C4E72000243049024144802292002C
S1133AE04A4B9847A37940229343A3716AE0A369A0
S1133AF0984203D0A368E268934266D35B46A3610D
S1133B00A368D805C00D8025AD002D1AAF4200D2A0
S1133B103D002030201804302A0041463B4B984792
S1133B20A37940221343A371A844A3685B19A3603B
S1133B3033685B1933607F1B002F54D0A168CB0519
S1133B40DED14A0A20688378013BDBB21A409246F0
S1133B500FD1002996D12369002B8FD0002B42D09E
S1133B60012B94D05A1C96D063612269002A00D19B
S1133B702361A3795B0692D423689946616918008E
S1133B80234B984700289DD0504483467A0A0192DB
S1133B90ADD05346944663444A469278934202D940
S1133BA05346D31A01934B465878019B5A464146D3
S1133BB0154DA847002889D1A3695A46991A019B33
S1133BC08B4287D8019B5D02AEE7210024314B462E
S1133BD0587801235A460F4DA84700288ED0012655
S1133BE0E67100963BE7A368E268934200D9E3607C
S1133BF0A37920221343A37131E700932FE7C04632
S1133C00A52A0000B13200008D250000F526000031
S1133C10BD2F00004125000070B50400244B9847D7
S1133C20002818D1A3799A0615D55B060DD5210075
S1133C302431236858780123A2691E4DA84700281F
S1133C4034D1A37940229343A371E16920681A4BCC
S1133C509847002800D070BD256AEB7A20221343D0
S1133C60EB72237B2B77A3891B0A6B77A37BAB7740
S1133C70E37BEB7721692800104B9847104B98475A
S1133C80A87583B21B0AEB75030C2B76000E6876BD
S1133C900023AB74EB74A37920229343A371012313
S1133CA0226813712068074B9847D4E70120D2E7B4
S1133CB0A52A00008D250000CD29000071270000F1
S1133CC0F1260000C12E000010B50400064B9847F1
S1133CD0002800D010BD2000044B98470028F9D1DB
S1133CE000232360F6E7C046193C0000A52A000023
S1133CF0F0B585B001900E00009207000024731EF9
S1133D009C4214DA02AB012203A900980C4DA84787
S1133D10029B012B0BD103AB1B780D2BEFD07A1C2C
S1133D203B7001340A2B01D01700E8E71700002389
S1133D303B70002C02D0019805B0F0BD0020FBE7D9
S1133D407938000010B5024B9847024B9847FCE7BE
S1133D50152100008521000010B5014B984710BDC6
S1133D608D45000010B5014B984710BDA9440000D3
S1133D70012804D080229201034B5A6170478022AB
S1133D809201014B9A61F9E70044004110B5064CD9
S1133D90FF20064B9847FF2804D0013C002CF7D1A4
S1133DA0012000E0002010BDFFFF0F00914600003D
S1133DB0F8B505000E00002801D0002412E03023DD
S1133DC00B7000234B701EE0671C34190A21280075
S1133DD00D4B9847303121700A2128000B4B98472E
S1133DE005003C00002DEFD1321900211170631E33
S1133DF007E071190878F21814780C701070013506
S1133E00013B9D42F5DBF8BD6D4A0000A14800006E
S1133E10F0B583B006000D0001922948294CA04753
S1133E202948A0470120294FB847FF20284B98472D
S1133E300020B8472748A0472748A0470020B84794
S1133E402648A047264B9847002804D100280DD0C7
S1133E50FF2003B0F0BD23481A4B984701201B4BA9
S1133E609847FF201A4B98470120EFE71E48154F4B
S1133E70B84740203043C0B2154CA0471B48B84750
S1133E80280EA0471A48B847280CC0B2A0471948C2
S1133E90B847280AC0B2A0471748B847E8B2A047B5
S1133EA01648B8470198A0478024A400FF20084B77
S1133EB09847013CA4B2002CCBD0FF28F6D0C8E729
S1133EC0B450000071470000D0500000713D000064
S1133ED091460000F050000004510000145100000D
S1133EE08D3D0000345100004C5100006851000029
S1133EF07C51000090510000A4510000B851000012
S1133F00F0B5C64600B584B06B486C4CA0476C4B0A
S1133F1098476C48A0476C486C4B984701206C4B01
S1133F209847002404E0FF206A4B98470134E4B228
S1133F30632CF8D96848614CA0470020644B98472B
S1133F406648A0476648614B98470022654B1A7043
S1133F50952200214020644B9847624D6870287870
S1133F600130C0B2287001A9604FB8476048534C73
S1133F70A04701A8A0475F4E3000A0475E48A04775
S1133F80687801A9B84701A8A0473000A0475B485A
S1133F904E4B98476C78012CDAD15948474EB047BC
S1133FA08722D521490048204F4B98474D4DA87092
S1133FB05448B047AB789846012B74D1002405E0EF
S1133FC0514B9847514B18550134E4B2032CF7D99F
S1133FD04E4BDB78AA2B03D04D48384B984766E00C
S1133FE04C48364B98474C4CFF22002177203E4FDB
S1133FF0B8473C4DE8704948304EB047FF22802115
S1134000C9056920B84728714548B047013CA4B2A6
S11340102B79002B01D0002CE6D1002C10D0414884
S1134020264DA847FF2200217A202F4B98472D4C7C
S113403060713D48A8476579002D08D12C0013E034
S11340403A481E4B98470120214B98472FE0012006
S11340501F4B98473648194B984728E02A4B9847F6
S11340602A4B18550134E4B2032CF7D9274B1B789B
S11340705B0611D504221B4B9A712E480F4B9847AF
S11340802D480E4CA0472D4B98472D48A0470120A2
S11340900F4B9847A8460AE00222124B9A7129480E
S11340A0064B9847ECE72848044B9847A0464046FF
S11340B004B004BC9046F0BDD45100007147000028
S11340C0593D0000F851000093760A004124000095
S11340D0713D0000914600001C5200003452000063
S11340E0B71702005E040020113E0000B13D00003D
S11340F0445200009450000068520000DC0B0100A0
S113410078520000905200009D460000C80800202C
S11341109C520000D4520000FFFF0000EC5200004B
S1134120FC52000020530000405300000C530000D8
S1134130505300006C530000C8530000653D00005C
S1134140E453000080530000A4530000F8B50E00AF
S1134150FF220021094B9847051E0DD1040007E0FA
S1134160771CFF20064B984730700134E4B23E00C0
S11341700F2CF5D92800F8BD0125FBE7113E0000FE
S11341809146000070B504000E00234B9B79042B6C
S113419003D02248224B9847640201222100512077
S11341A0204B98471C4BD87109E01F481C4B98477B
S11341B00122210051201B4B9847174BD871164BF5
S11341C0DB79002BF1D11948194B9847194B9847C3
S11341D0FE28FBD1104BDB79002B0CD01648104B7A
S11341E09847FF20154CA047FF20A0470120144BFF
S11341F09847002070BD1348094B9847002406E0F7
S11342003519FF200D4B984728700134A4B20E4B8A
S11342109C42F5D9E2E7C0465E0400200054000049
S113422071470000113E000014540000CA1A000037
S1134230412400009D4600003854000091460000CF
S1134240713D00002C540000FF010000F8B50D0082
S113425017001C4B9B79042B00D04002FF22010065
S11342605220194B9847002801D00120F8BD174B64
S1134270984713E06E1CFF20154B984728700134B3
S1134280A4B23500134B9C42F4D9FF20104CA04734
S1134290FF20A047013FFFB2002F06D0FF200C4BA8
S11342A09847FE28FAD10024ECE70120074B9847F1
S11342B0FF2200214C20044B9847FF20044B9847D1
S11342C03800D3E75E040020113E0000713D000079
S11342D091460000FF01000070B504000D002E4B54
S11342E09B79042B00D044020122210058202B4B3F
S11342F09847294B187206E0012221005820274BC9
S11343009847254B1872244B1E7A002EF4D10020B6
S1134310234B9847FF20234CA047FF20A047FF20B2
S1134320A047FE20A047002404E0285D1D4B9847C9
S11343300134A4B21C4B9C42F7D9FF20194CA0476E
S1134340FF20A047FF20A0471F23184005280FD1B6
S11343500024FF20134B9847002811D10134A4B244
S1134360124B9C42F5D101200D4B9847012610E0D9
S11343700F48104B98470120094B9847012608E045
S11343800120074B9847FF20064B98470A48094BE2
S11343909847300070BDC0465E040020113E000006
S11343A0713D000091460000FF010000FFFF000086
S11343B048540000714700005C540000F8B5040044
S11343C00D0017002F4B9B79042B00D04402002BC7
S11343D00FD1FF22210059202B4B984700280ED1E2
S11343E000202A4B9847FF20294CA047FF20A047D4
S11343F028E0002239005720234B9847E9E7254855
S1134400254B98470120F8BD6E1C2878204B98470F
S11344100134A4B23500214B9C42F5D9FF201C4C39
S1134420A047FF20A047FF20A0471F2318400528CE
S11344300DD1FF20164B98470028FAD0013FFFB258
S1134440002F0CD0FC20124B98470024E3E71448BB
S1134450114B984701200D4B98470120D3E7FD20CD
S11344600B4B9847FF200A4B98470028FAD00120AD
S1134470064B9847FF20064B98470A48064B984737
S11344803800C0E75E040020113E0000713D0000CA
S1134490914600007054000071470000FF010000C5
S11344A098540000B454000010B5324BDB699B07EC
S11344B0FBD4314A136A40210B4313622F4A304B19
S11344C05A802F4B5B78DB09FBD12E4BB022920133
S11344D09A60802252015A60802292019A614A2293
S11344E0995C01200143C9B299540132995C01439A
S11344F0C9B299540132995C0143C9B299544D210E
S11345005A5C0243D2B25A542B393522995414318D
S1134510022058545A5C20242243D2B25A54154BD8
S113452019680A0082431A60124BDB69DB07FBD46B
S1134530104A116801230B4313600E4B1B68DB0701
S1134540FBD40C4BDB69DB07FBD40A4BDB699B0711
S1134550F7D4084B0C4A1A60802292025A60012256
S11345601A731A6802210A431A60024BDB699B071B
S1134570FBD410BD001800420004004018400000A5
S1134580000C0040004400410C00010010B5324B07
S1134590DB699B07FBD4314A136A40210B43136246
S11345A02F4A304B5A802F4B5B78DB09FBD12E4BC3
S11345B0B02292019A60802252015A6080229201B4
S11345C09A614A22995C01200143C9B2995401328B
S11345D0995C0143C9B299540132995C0143C9B24F
S11345E099544D215A5C0243D2B25A542B39352284
S11345F099541431022058545A5C20242243D2B2D4
S11346005A54154B19680A0082431A60124BDB692D
S1134610DB07FBD4104A116801230B4313600E4BD4
S11346201B68DB07FBD40C4BDB69DB07FBD40A4BB1
S1134630DB699B07F7D4084B0C4A1A60802292026C
S11346405A603B221A731A6802210A431A60024B09
S1134650DB699B07FBD410BD001800420004004036
S113466018400000000C0040004400410C00010010
S1134670064B1B7EDB07FBD5044B9862034B1B7E6A
S11346805B07FBD5014B986AC0B270470018004223
S113469010B5014B984710BD7146000010B5FF20BE
S11346A0014B984710BDC0467146000070B5224AC0
S11346B0136820210B431360204A214B5A80214B5D
S11346C08022D2039A605622995C01263143C9B2F2
S11346D099543B24195D473A9143022211431955D9
S11346E0802212045A6057215D5C042295435D5474
S11346F05A5C3243D2B25A54195D0F220A40202127
S11347000A431A55104C114B2360C0239B0263606B
S113471003071B1A18010E4B9C466044010C00044D
S11347200B4A00230B4DA84780B2A08123680222C4
S11347301343236070BDC0462004004017400000AE
S1134740000C0040004400410014004204001040EA
S1134750006CDC02794A0000034B1B78002BFBD071
S113476080B2024B1880704718140042281400428B
S113477070B50500002402E0034B98470134285D1E
S11347800028F9D170BDC0465947000000224308F3
S11347908B4274D303098B425FD3030A8B4244D305
S11347A0030B8B4228D3030C8B420DD3FF22090247
S11347B012BA030C8B4202D31212090265D0030B06
S11347C08B4219D300E0090AC30B8B4201D3CB03FC
S11347D0C01A5241830B8B4201D38B03C01A52413E
S11347E0430B8B4201D34B03C01A5241030B8B4240
S11347F001D30B03C01A5241C30A8B4201D3CB022B
S1134800C01A5241830A8B4201D38B02C01A52410F
S1134810430A8B4201D34B02C01A5241030A8B4212
S113482001D30B02C01A5241CDD2C3098B4201D32A
S1134830CB01C01A524183098B4201D38B01C01AA8
S1134840524143098B4201D34B01C01A524103091F
S11348508B4201D30B01C01A5241C3088B4201D3CE
S1134860CB00C01A524183088B4201D38B00C01A7B
S1134870524143088B4201D34B00C01A5241411AA2
S113488000D20146524110467047FFE701B50020AF
S113489000F0F0F802BDC0460029F7D076E7704773
S11348A003460B437FD4002243088B4274D303098D
S11348B08B425FD3030A8B4244D3030B8B4228D32E
S11348C0030C8B420DD3FF22090212BA030C8B4254
S11348D002D31212090265D0030B8B4219D300E0F4
S11348E0090AC30B8B4201D3CB03C01A5241830B79
S11348F08B4201D38B03C01A5241430B8B4201D329
S11349004B03C01A5241030B8B4201D30B03C01A51
S11349105241C30A8B4201D3CB02C01A5241830ACB
S11349208B4201D38B02C01A5241430A8B4201D3FA
S11349304B02C01A5241030A8B4201D30B02C01A24
S11349405241CDD2C3098B4201D3CB01C01A52418B
S113495083098B4201D38B01C01A524143098B4214
S113496001D34B01C01A524103098B4201D30B01FD
S1134970C01A5241C3088B4201D3CB00C01A524122
S113498083088B4201D38B00C01A524143088B42E7
S113499001D34B00C01A5241411A00D20146524180
S11349A0104670475DE0CA0F00D04942031000D39F
S11349B04042534000229C4603098B422DD3030AF4
S11349C08B4212D3FC22890112BA030A8B420CD304
S11349D0890192118B4208D3890192118B4204D32D
S11349E089013AD0921100E08909C3098B4201D3AD
S11349F0CB01C01A524183098B4201D38B01C01AE7
S1134A00524143098B4201D34B01C01A524103095D
S1134A108B4201D30B01C01A5241C3088B4201D30C
S1134A20CB00C01A524183088B4201D38B00C01AB9
S1134A305241D9D243088B4201D34B00C01A524190
S1134A40411A00D20146634652415B10104601D31D
S1134A504042002B00D54942704763465B1000D3A7
S1134A60404201B5002000F005F802BD0029F8D04D
S1134A7016E770477047C046002B11D1002A0FD1AA
S1134A80002900D1002802D00021C943081C07B422
S1134A90024802A14018029003BDC046D9FFFFFF9F
S1134AA003B4684601B5029800F006F8019B9E46DF
S1134AB002B00CBC7047C046F0B557464E4645465A
S1134AC0DE46E0B5040083B00D00924699468B4261
S1134AD02FD82CD04946504600F0AEF829000600E5
S1134AE0200000F0A9F8331A9846203B9B4600D5D5
S1134AF074E053465A4693401F005346424693403F
S1134B001E00AF4229D826D05B46A41BBD41002B12
S1134B1000DA79E0002200230092019301235A462F
S1134B2093400193012342469340009319E082424B
S1134B30D0D900220023009201930C9B002B01D0BA
S1134B401C605D600098019903B03CBC9046994696
S1134B50A246AB46F0BDA342D6D900220023009260
S1134B6001934346002BE8D0FB0772081A434646DC
S1134B707B080EE0AB4201D1A2420CD8A41A9D419D
S1134B80012024196D410021013E24184D41002EBD
S1134B9006D0AB42EED9013E24196D41002EF8D166
S1134BA05B460098019900196941002B22DB2B0018
S1134BB05A46D3402A004446E2401C005B46150096
S1134BC0002B2CDB26009E40330026004746BE40C7
S1134BD03200801A994100900191AEE742462023A9
S1134BE09B1A5246DA40414613004A468A4017004F
S1134BF01F4382E7424620239B1A2A0046469A40D6
S1134C002300F3401343D5E74246202300219B1A97
S1134C100022009101920122DA40019282E7424689
S1134C20202326009B1ADE402F00B4469740664698
S1134C303B003343C9E7C04610B5002903D100F057
S1134C4007F8203002E0081C00F002F810BDC0464E
S1134C501C2101231B04984201D3000C10391B0AA8
S1134C60984201D3000A08391B09984201D300096C
S1134C70043902A2105C40187047C04604030202C3
S1134C8001010101000000000000000070B50D4E9C
S1134C900D4D0024AD1BAD1005D0A300F358013415
S1134CA09847A542F9D100F015FC084E084D0024A0
S1134CB0AD1BAD1005D0A300F35801349847A542AD
S1134CC0F9D170BDE0540000E0540000E05400004D
S1134CD0E8540000034B10B5002B02D0024800F04A
S1134CE005F810BD00000000FD4C000010B50100E7
S1134CF000230022002000F01FF810BD70B5094BFE
S1134D00094CE41AA41009D0084AA518AD00ED18FE
S1134D102B68013C9847043D002CF9D100F0E4FBDA
S1134D2070BDC046F4540000F8540000FFFFFF3F7C
S1134D307047C0467047C046F0B54E464546DE460D
S1134D405746E0B5364D83B00600286898460F00F4
S1134D509146FFF7EDFF334B1C68A4235B00E0583A
S1134D60002852D043681F2B13DC5A1C0192002EDA
S1134D7028D1019A02339B0042601F502868FFF734
S1134D80D9FF002003B03CBC90469946A246AB46EE
S1134D90F0BD254B002B3DD0C820400000E000BFF3
S1134DA0002837D0A42200235200A1584360016098
S1134DB0A0504032835004328350013301930023C6
S1134DC0002ED6D09A00924682444A468821544600
S1134DD06250C4225200914681444A468739994020
S1134DE012688B460A4394464A46614611608422FF
S1134DF041465200A150022EBBD102005C468D32C6
S1134E00FF3211680C431460B3E720004D30FF30CB
S1134E10E050A7E72868FFF78DFF01204042B1E783
S1134E2038040020D05400000000000055415254C2
S1134E303320496E697469616C697A65640D0A008E
S1134E4053504920496E697469616C697A656420BC
S1134E5028536C6F77290D0A000000005344204347
S1134E6061726420496E697469616C697A65642051
S1134E705375636365737366756C6C790D0A000012
S1134E805344204361726420496E697469616C699A
S1134E907A6174696F6E204661696C65640D0A00FD
S1134EA04D6F756E74696E6720534420636172643C
S1134EB02E2E2E0D0A0000004572726F72206D6F47
S1134EC0756E74696E672066696C65207379737496
S1134ED0656D0D0A00000000534420636172642074
S1134EE06D6F756E74656420737563636573736643
S1134EF0756C6C790D0A00004F70656E696E6720E1
S1134F0066696C6520666F722077726974696E6772
S1134F102E2E2E0D0A0000004572726F72206F70E3
S1134F20656E696E672066696C6520666F722077AE
S1134F30726974696E670D0A000000005772697423
S1134F40696E67206461746120746F2066696C65A2
S1134F502E2E2E0D0A00000044617461312C446130
S1134F607461322C44617461332C44617461340D76
S1134F700A0000004572726F722077726974696E5C
S1134F806720746F2066696C650D0A004572726F44
S1134F907220636C6F73696E672066696C6520614B
S1134FA0667465722077726974696E670D0A000011
S1134FB046696C65207772697474656E20616E64ED
S1134FC020636C6F736564207375636365737366C4
S1134FD0756C6C790D0A00004F70656E696E672000
S1134FE066696C6520666F722072656164696E67BC
S1134FF02E2E2E0D0A0000004572726F72206F7003
S1135000656E696E672066696C6520666F722072D2
S1135010656164696E670D0A000000005265616491
S1135020696E672066696C6520636F6E74656E7463
S1135030733A0D0A000000004572726F7220636CAF
S11350406F73696E672066696C652061667465724A
S11350502072656164696E670D0A000046696C65BB
S1135060207265616420616E6420636C6F73656493
S1135070207375636365737366756C6C790D0A00D0
S1135080726561642032200D0A0000007772697431
S1135090652031200D0A0000777269746520322082
S11350A00D0A0000222A2B2C3A3B3C3D3E3F5B5D1F
S11350B07C7F000053444361726457726974655F76
S11350C0436D642073746172746564210D0A000079
S11350D0546F67676C65204C696E6520616E64204F
S11350E07472616E736D697420646174610D0A0079
S11350F0436172642069732073656C6563746564CD
S1135100210D0A0053445F535320746F20300D0A5D
S113511000000000436865636B20696620534443C4
S11351206172645F5761697452656164203D203027
S11351300D0A000053444361726420446973616240
S11351406C652053656C6563740D0A007374617239
S11351507420636F6D6D616E6420616E6420696E8E
S11351606465780D0A000000417267756D656E74A0
S1135170205B33312E2E32345D0D0A004172677587
S11351806D656E74205B32332E2E31365D0D0A0050
S1135190417267756D656E74205B31352E2E385DF6
S11351A00D0A0000417267756D656E74205B372EC1
S11351B02E305D0D0A00000053656E642056616C4C
S11351C069642043524320616E642053746F7021DC
S11351D00D0A00005374617274696E672053442091
S11351E04361726420496E697469616C697A61749F
S11351F0696F6E0D0A0000005344204361726420FD
S1135200496E697469616C697A656420746F2053AE
S11352106C6F772053706565640D0A0053656E7476
S1135220203130302064756D6D7920636C6F636B51
S1135230730D0A0043532073657420746F204C4F20
S1135240570D0A00417474656D7074696E6720436C
S11352504D44302052657365742C20617474656DFF
S113526070743A2000000000434D443020526573AE
S1135270706F6E73653A20004361726420526573E7
S11352806574205375636365737366756C0D0A00EA
S1135290434D44382053656E740D0A00434D443821
S11352A0204661696C65643A204361726420646FCE
S11352B06573206E6F7420737570706F72742072D2
S11352C06571756972656420766F6C746167650DCC
S11352D00A000000434D443820526573706F6E73AA
S11352E0652056616C69640D0A000000434D443525
S11352F0352053656E740D0A0000000041434D448F
S113530034312053656E740D0A00000041434D444E
S113531034312054696D656F75740D0A0000000006
S11353204361726420496E697469616C697A61745D
S1135330696F6E20436F6D706C6574650D0A0000B3
S1135340434D4435382053656E740D0A0000000047
S113535050726F626C656D2072656164696E67205E
S11353604F435220646174610D0A0000436172640A
S11353703A2056322E3020534448430D0A00000090
S11353804361726420547970653A2056322E30207D
S11353905374616E64617264204361706163697403
S11353A0790D0A00434D4438204661696C65642CCC
S11353B02043617264204E6F7420537570706F7255
S11353C07465640D0A000000496E697469616C6952
S11353D07A6174696F6E20436F6D706C65746520BB
S11353E00D0A0000537769746368656420746F2044
S11353F0466173742053706565640D0A00000000F3
S11354004E6F742053445F545950455F563248439D
S11354100D0A00005265616420626C6F636B206149
S11354206464726573730D0A000000005265616460
S1135430696E670D0A0000005265616420636F6D38
S1135440706C6574650D0A00435243205772697489
S113545065204661696C0D0A00000000577269748A
S11354606520436F6D706C6574650D0A0000000063
S11354705772697465204D756C7469706C6520424F
S11354806C6F636B20416464726573732046616959
S11354906C65640D0A000000435243204D756C7422
S11354A069706C65205772697465204661696C6522
S11354B0640D0A005772697465204D756C746970C7
S11354C06C6520436F6D706C6574650D0A00000097
S11354D010000020F8B5C046F8BC08BC9E467047D2
S11354E0D54C0000DD200000F8B5C046F8BC08BC6F
S10B54F09E467047B520000040
S10B54F8C0F5FF7F0100000074
S1135500446174612E6373760000000000000000A3
S113551000000000FC02002064030020CC030020F3
S11355200000000000000000000000000000000077
S11355300000000000000000000000000000000067
S11355400000000000000000000000000000000057
S11355500000000000000000000000000000000047
S11355600000000000000000000000000000000037
S11355700000000000000000000000000000000027
S11355800000000000000000000000000000000017
S11355900000000000000000000000000000000007
S11355A000000000000000000000000000000000F7
S11355B000000000000000000100000000000000E6
S11355C00E33CDAB34126DE6ECDE05000B000000AB
S11355D000000000000000000000000000000000C7
S11355E000000000000000000000000000000000B7
S11355F000000000000000000000000000000000A7
S11356000000000000000000000000000000000096
S10F59300000000000000000C80A002075
S9032000DC
