S00C00004D61696E2E7372656393
S1132000302A0020092600000526000005260000CD
S113201000000000000000000000000000000000BC
S11320200000000000000000000000000526000081
S11320300000000000000000052600000526000046
S113204005260000052600000526000005260000E0
S113205005260000052600000526000005260000D0
S113206005260000052600000526000005260000C0
S113207005260000052600000526000005260000B0
S113208005260000052600000526000005260000A0
S11320900526000005260000052600000526000090
S11320A00526000005260000052600000526000080
S11320B00000000010B5064C2378002B07D1054B17
S11320C0002B02D0044800E000BF0123237010BDA0
S11320D0B009002000000000BC8F0000084B10B5C0
S11320E0002B03D00749084800E000BF07480368F5
S11320F0002B00D110BD064B002BFBD09847F9E70D
S113210000000000B4090020BC8F0000BC8F000058
S113211000000000214A116880235B020B43136016
S11321201E4B1B68DB03FBD51D4A1E4B5A801D4BFF
S11321305B78DB09FBD101221B4B1A701A4B1B780D
S1132140DB07FBD4184B5B7EDB09F7D1174B1B680D
S1132150DB081B02E022D200134015490A684968D3
S11321604901D20E0A43FF210A4013430E4A138544
S11321705378F0398B4301210B4353700A23D370F6
S113218093880C491940C0239B000B43938002237E
S11321901370054B5B7EDB09FBD1704720040040C4
S11321A01E400000000C00400040004224608000FB
S11321B020608000FFF8FFFF1F231840074A1369BF
S11321C01F218B431843106103231373034B1B7E9E
S11321D0DB07FBD5014B588B80B2704700400042AF
S11321E00300064A1268002A04D0044A1068C3187F
S11321F0136070470249014A1160F6E7CC090020D8
S1132200302A002010B5044B984780239B02034AD0
S11322101360034A136010BD2523000000440041ED
S113222014440041F0B5D64600B58AB0962080012A
S1132230294B984729482A4DA8472A4B98472A48AA
S11322402A4CA0472A4B98472A48A8472A48A0471F
S113225002E02A48224B98471320294B9847294BE0
S11322609B7ADB09FBD1274B1A69D203D70E1A6973
S11322701205950E1B699B069B0E9A460028E8DB07
S11322800A2202A9204B98472048184CA04702A8CC
S1132290A0471F48A047534600932B003A001D490E
S11322A005A81D4EB04705A8A0471C48A0471C48D8
S11322B0A04702A8A0471648A047534600932B0006
S11322C03A00144905A8B04705A8A0471348A047F9
S11322D01248A047BDE7C04641270000DC50340047
S11322E0F92500009524000040880000052800001E
S11322F01521000093760A007088000025E5390155
S1132300B921000000140040E1260000908800007C
S1132310988800009C880000FD2D0000648A00005D
S1132320B888000030B5504A53681E218B431C39CD
S11323300B435360082204231A4380239B00134356
S11323409BB24A4A9382938A0B439382474BDB683E
S11323509B07FBD501238021490019434448816030
S1132360A022D2001A4380235B021A4380239B02DB
S1132370134343603E4B5B78DB09FBD18023DB01D5
S11323808022520013433A4A5380384BDB68DB0601
S1132390FBD50222354B9A84344BDB68DB06FBD534
S11323A0344B354A1A43F823DB0513432F4AD362CF
S11323B02E4BDB68DB06FBD5304B1A682B498B6A46
S11323C0920E92022E48034013438B62274BDB6824
S11323D0DB06FBD5254A938C2A490B439384244876
S11323E080231B038022920280214902E024E4001E
S11323F021430A43134343601D4B5B78DB09FBD144
S1132400214C80231B068022D20580214905E0202F
S1132410C00488256D02284301430A431343A36281
S1132420124B1A6A19490A401A621A6A80218A43AD
S11324301A620323803119430D488160C022D200FF
S11324401A4380235B021A4380239B021343436095
S1132450074B5B78DB09FBD10D4B00221A725A72D1
S11324609A72DA7230BDC046004000410008004054
S1132470000C00400000FF01B9050000246080004A
S1132480FF03FFFF0408000000440041FFFCFFFFBE
S11324900004004010B582B04048414CA047414A76
S11324A0936920210B4393613F48A0473F4B04228B
S11324B0FF329A603E4A5A603C4B5B78DB09FBD1A1
S11324C03C4A3A4B5A80394B5B78DB09FBD13A489A
S11324D0334B9847394A138801210B439BB213802D
S11324E00023019302E0019B01330193019A344BD1
S11324F09A42F8DD02E03348294B98472F4B9B7AE8
S1132500DB09F8D13048264B98472C4A138802211E
S11325108B43138002E02D48214B9847274B9B7A2D
S1132520DB09F8D12A481E4B98472A4A234B1A80C4
S113253002E029481A4B9847204B9B7ADB09F8D1D3
S11325402648174B984700221C4B1A61244A00E086
S1132550013A1A4B9B7ADB0901D0002AF8D1002AF0
S11325600BD020480E4CA0471F48A047134A13889D
S113257002210B439BB2138006E01C48084B98478A
S113258009E01B48064B98470C4B9B7ADB09F8D1B2
S11325901848034B984702B010BDC046C0880000DD
S11325A00528000000040040E4880000000C0040FE
S11325B003030100044300002089000000140040CC
S11325C09F86010048890000748900009C890000EE
S11325D0CC890000080A00000C8A0000448A00002C
S11325E0809698008C8A0000B88A0000688A0000EF
S11325F0E08A00000C8B0000BFF35F8F01380028D5
S1132600FAD17047FEE70000F8B5234A234B9A42FB
S113261009D0224B204A03E01168196004330432C4
S11326201F498B42F8D31F4B02E000221A60043387
S11326301D4A9342F9D31D4AFF211D4B8B439360DE
S1132640FD3990235B001B4AD1501B4AD3780325E4
S1132650AB4302242343D370D3780C27BB4308260F
S11326603343D370154B987B302290432022104380
S11326709873997BB943314399739A7BAA43224354
S11326809A730F4A516880230B4353600D4B98474C
S11326900D4B9847FEE7C046BC8F000000000020A9
S11326A0B0090020B00900202C0A002000ED00E051
S11326B0002000000070004100500041004800412B
S11326C000400041212D0000CD26000010B5024B32
S11326D09847024B9847FCE705220000252200009A
S11326E0F8B505000E00002801D0002412E03023C4
S11326F00B7000234B701EE0671C34190A2128005C
S11327000D4B9847303121700A2128000B4B984714
S113271005003C00002DEFD1321900211170631E19
S113272007E071190878F21814780C7010700135EC
S1132730013B9D42F5DBF8BD012B0000352900006B
S113274070B5224A136820210B431360204A214BA1
S11327505A80214B8022D2039A605622995C01262A
S11327603143C9B299543B24195D473A914302223B
S113277011431955802212045A6057215D5C0422CA
S113278095435D545A5C3243D2B25A54195D0F22B8
S11327900A4020210A431A55104C114B2360C023D0
S11327A09B02636003071B1A18010E4B9C4660448E
S11327B0010C00040B4A00230B4DA84780B2A081F2
S11327C0236802221343236070BDC04620040040E6
S11327D017400000000C0040004400410014004277
S11327E004001040006CDC020D2B0000034B1B782E
S11327F0002BFBD080B2024B1880704718140042A3
S11328002814004270B50500002402E0034B9847E9
S11328100134285D0028F9D170BDC046ED270000C1
S1132820002243088B4274D303098B425FD3030A0B
S11328308B4244D3030B8B4228D3030C8B420DD31E
S1132840FF22090212BA030C8B4202D312120902AC
S113285065D0030B8B4219D300E0090AC30B8B42EA
S113286001D3CB03C01A5241830B8B4201D38B0398
S1132870C01A5241430B8B4201D34B03C01A52413D
S1132880030B8B4201D30B03C01A5241C30A8B4280
S113289001D3CB02C01A5241830A8B4201D38B026B
S11328A0C01A5241430A8B4201D34B02C01A52410F
S11328B0030A8B4201D30B02C01A5241CDD2C30981
S11328C08B4201D3CB01C01A524183098B4201D3FD
S11328D08B01C01A524143098B4201D34B01C01AE8
S11328E0524103098B4201D30B01C01A5241C30860
S11328F08B4201D3CB00C01A524183088B4201D3CF
S11329008B00C01A524143088B4201D34B00C01ABA
S11329105241411A00D20146524110467047FFE726
S113292001B5002000F0F0F802BDC0460029F7D040
S113293076E7704703460B437FD4002243088B425B
S113294074D303098B425FD3030A8B4244D3030B32
S11329508B4228D3030C8B420DD3FF22090212BAF7
S1132960030C8B4202D31212090265D0030B8B4273
S113297019D300E0090AC30B8B4201D3CB03C01A5D
S11329805241830B8B4201D38B03C01A5241430B38
S11329908B4201D34B03C01A5241030B8B4201D328
S11329A00B03C01A5241C30A8B4201D3CB02C01A93
S11329B05241830A8B4201D38B02C01A5241430A0B
S11329C08B4201D34B02C01A5241030A8B4201D3FA
S11329D00B02C01A5241CDD2C3098B4201D3CB01A1
S11329E0C01A524183098B4201D38B01C01A524150
S11329F043098B4201D34B01C01A524103098B4254
S1132A0001D30B01C01A5241C3088B4201D3CB003E
S1132A10C01A524183088B4201D38B00C01A524121
S1132A2043088B4201D34B00C01A5241411A00D2D1
S1132A3001465241104670475DE0CA0F00D049423A
S1132A40031000D34042534000229C4603098B42AA
S1132A502DD3030A8B4212D3FC22890112BA030A32
S1132A608B420CD3890192118B4208D389019211B4
S1132A708B4204D389013AD0921100E08909C30939
S1132A808B4201D3CB01C01A524183098B4201D33B
S1132A908B01C01A524143098B4201D34B01C01A26
S1132AA0524103098B4201D30B01C01A5241C3089E
S1132AB08B4201D3CB00C01A524183088B4201D30D
S1132AC08B00C01A5241D9D243088B4201D34B0028
S1132AD0C01A5241411A00D20146634652415B106A
S1132AE0104601D34042002B00D54942704763464B
S1132AF05B1000D3404201B5002000F005F802BD90
S1132B000029F8D016E770477047C046002B11D152
S1132B10002A0FD1002900D1002802D00021C94386
S1132B20081C07B4024802A14018029003BDC04625
S1132B30D9FFFFFF03B4684601B5029800F006F818
S1132B40019B9E4602B00CBC7047C046F0B5574688
S1132B504E464546DE46E0B5040083B00D0092467D
S1132B6099468B422FD82CD04946504600F0AEF8F7
S1132B7029000600200000F0A9F8331A9846203BEB
S1132B809B4600D574E053465A4693401F00534673
S1132B90424693401E00AF4229D826D05B46A41B70
S1132BA0BD41002B00DA79E000220023009201935A
S1132BB001235A46934001930123424693400093D4
S1132BC019E08242D0D900220023009201930C9B89
S1132BD0002B01D01C605D600098019903B03CBCDF
S1132BE090469946A246AB46F0BDA342D6D90022F0
S1132BF00023009201934346002BE8D0FB077208A0
S1132C001A4346467B080EE0AB4201D1A2420CD8DF
S1132C10A41A9D41012024196D410021013E24186C
S1132C204D41002E06D0AB42EED9013E24196D4130
S1132C30002EF8D15B460098019900196941002BD8
S1132C4022DB2B005A46D3402A004446E2401C00B3
S1132C505B461500002B2CDB26009E40330026002B
S1132C604746BE403200801A994100900191AEE778
S1132C70424620239B1A5246DA40414613004A46F4
S1132C808A4017001F4382E7424620239B1A2A00EA
S1132C9046469A402300F3401343D5E74246202397
S1132CA000219B1A0022009101920122DA40019234
S1132CB082E74246202326009B1ADE402F00B446BA
S1132CC0974066463B003343C9E7C04610B5002928
S1132CD003D100F007F8203002E0081C00F002F8ED
S1132CE010BDC0461C2101231B04984201D3000CD3
S1132CF010391B0A984201D3000A08391B0998426B
S1132D0001D30009043902A2105C40187047C04680
S1132D1004030202010101010000000000000000A0
S1132D2070B50D4E0D4D0024AD1BAD1005D0A300A4
S1132D30F35801349847A542F9D106F029F9084E11
S1132D40084D0024AD1BAD1005D0A300F358013489
S1132D509847A542F9D170BD9C8F00009C8F00005C
S1132D609C8F0000A48F0000F0B5830743D0541E4D
S1132D70002A3FD0CEB20200032502E01A00013C33
S1132D8038D3531C16702B42F8D1032C2AD9FF22B6
S1132D900A40150215432A0415430F2C14D92700A1
S1132DA01A00103F3E09013636019E191560556020
S1132DB09560D56010329642F8D10F2297431037B0
S1132DC0DB191440032C0DD91A00271FBE08013645
S1132DD0B6009E1920C2B242FCD1032297430437A5
S1132DE0DB191440002C05D0C9B21C191970013329
S1132DF09C42FBD1F0BD14000300C6E70EB410B52D
S1132E009DB002A9029008610B4882248860486141
S1132E10012040421FABC881084804CBA4000068CD
S1132E2001938C8100F00CF80023029A13701DB0FA
S1132E3010BC08BC03B01847FFFFFF7F0000002050
S1132E40F0B5DE46454657464E46E0B5C3B00D00E4
S1132E50069114000F93099002F092FB0368180086
S1132E60199303F03FFA1890AB891B0605D52B691B
S1132E700793002B01D101F063F832AB25930023B3
S1132E80A34625AFBB607B6014931693159332AEB3
S1132E9017931A930A935B461B785C46002B1CD04D
S1132EA0252B02D119E0252B03D001342378002BE4
S1132EB0F9D15B46E51A10D05B463360BB68756098
S1132EC05B19BB607B6801337B60072B2EDC083603
S1132ED00A9B9C46AC4463460A932378002B2ED06D
S1132EE0631C9B46002316AAD377012252429246C2
S1132EF0002200210B9220329146203263788846CA
S1132F00002000249446594601311A00203A582AD8
S1132F1000D9FDE2D74D9200AA5897460B9B0F9219
S1132F205B420B9304231C430B78EDE73A000699AC
S1132F30099803F009FA002809D132AEC8E7BB6842
S1132F40002B04D03A000699099803F0FDF9069B7A
S1132F509B895B0601D501F0CEF80A9843B03CBCCE
S1132F6090469946A246AB46F0BD01220B789046A6
S1132F702B20C9E74B1C9B460B782A2B01D101F06F
S1132F801BFA1A000021303A8A465946092ABCD84D
S1132F900300110050465A469A46A34683001B1864
S1132FA014785B0058182100531C30391A00092981
S1132FB0F4D9524619008246230010005C46A4E767
S1132FC080231C430B789FE78B46414612930029CC
S1132FD001D001F01FFA10231C430F9AA30601D558
S1132FE000F088FEE30601D500F080FD630601D4FD
S1132FF000F07CFD0021535E0C930432DB170D932B
S11330000F9201D500F086FE0C990D9A080016ABBC
S1133010DB7F10439846020001235146013100D161
S1133020FFE08021200088430890002A00D0FCE0C3
S11330305246002A01D000F02CFC002B01D000F0F5
S113304004FD012032AB20400E90119308D02723B9
S1133050302128AAD15416AA9446483363441193C4
S113306053460E9A0793924500DA0792002313936E
S11330704346002B02D0079B013307930223089A8F
S11330801A40914602D0079B023307938423089A7F
S11330901A40109200D04DE20B9B079A9C1A002C08
S11330A000DC47E27449BA687B688846102C1FDD4F
S11330B031001025464603E0103C0831102C15DD84
S11330C0103201330E604D60BA607B60072BF3DD74
S11330D03A000699099803F037F9002800D036E73A
S11330E0103CBA687B6832A9102CE9DCB0460E00AB
S11330F0414674600133A4183160BC607B60072BC7
S113310001DD00F0A8FC16ABDB7F0836984612E21E
S11331108B4641461293002901D001F077F907222A
S11331200F9B07339343013294469C4462460F92AB
S11331301A6816925B6801221593159B169D5B0015
S11331405B08984652424D4B2800414605F0AAFAC6
S1133150002801D000F0FDFD0122484B5242280016
S1133160414603F0A7FD002801D000F0F2FD002243
S113317000231698159903F093FD002801D001F05F
S113318022F816ABDB7F9846129B472B01DD00F03B
S1133190C7FE3B4B119380239C437D3B07930E93C7
S11331A0002308949A46139362E70022303B1500EB
S11331B01A000300079408002C009B46A3001C1966
S11331C00378640014191A000131303A0800092AFE
S11331D0F4D90B945846079C97E608231C430B78B4
S11331E092E6129310231C438B46A30600D57BE181
S11331F0E30601D500F07EFC630601D400F07AFCFE
S11332000F9B1A880C92002204330F9300230D9213
S11332100C9A002116A8C17788465146013100D086
S1133220FFE6002A00D135E30894012B00D1E5E341
S1133230022B00D062E3179C0F20A146B44632ABA8
S113324019000C9A0D9B04004D4614402C5D1E077A
S1133250150901392E430C701C0923003400320077
S11332601C43F0D10C920D9332AB5B1A119166465C
S11332700E93F5E6248B0000CC8C0000FFFFEF7F5B
S1133280888C0000129310231C438B46A30600D5A0
S113329011E1E30601D500F031FC630601D400F02E
S11332A02DFC0F9B1A880C92002204330D920F936D
S11332B00C9A0123ADE78B4641461293002901D0B5
S11332C001F090F8B84B1793A30600D5ABE0E306E2
S11332D001D500F007FC630601D400F003FC0F9B4A
S11332E01A880C92002204330D920F93E30700D442
S11332F0A9E00C990D9A0B0013431A000223002A2B
S113330000D186E730201EA9087048256846401978
S113331000781C4348707CE78B464146002901D065
S113332001F083F8A30601D500F0E9FDE30601D519
S113333000F09BFD630601D400F097FD69460F9BE6
S1133340098D1A680433079211800F93A3E54B4645
S11333501C430B78D8E512930F9B8B461D1D1B68ED
S113336016A91A0011930023CB77002A01D100F08B
S1133370FBFE5346013301D100F038FE52460021D2
S1133380119802F0C3FB002801D100F054FF119BF7
S1133390C31A1A000E93DB43DB171A4016ABDB7F0C
S11333A00792984600230F9508949A4613935FE674
S11333B00F9A1293136828AD07936B461B7F8B46B5
S11333C02B70002316A9CB77130004330F9300232B
S11333D008949846013307930E93002311959A4657
S11333E013934BE68B4641461293002900D1F4E532
S11333F016ABD877F1E563461C430B7884E50B786C
S11334006C2B01D100F086FD102214437CE58B4621
S113341041461293002901D000F0E8FF634B179353
S1133420A30600D453E707220F9B073393430132CB
S113343094469C4462460F921A685B680C920D9302
S1133440E30700D555E70C990D9A080010430223B1
S11334500200DEE68B460F9930220B680C930023A2
S11334600D9302331C431EAB1A7048325A700B0082
S113347004330F934D4B129217930C9A0223C8E610
S113348001231C430B783FE50F9B1A1D1B680B930C
S1133490002B00DA42E50B780F9235E50B78002813
S11334A000D031E50122203090462DE58B46129361
S11334B0A30600D4EDE607220F9B073393430132A2
S11334C094469C4462460F921A685B6811001A0085
S11334D0080010430C910D920123020099E68B46DB
S11334E01293A30600D483E607220F9B073393436A
S11334F0013294469C4462460F921A685B6811003C
S11335001A00080010430C910D920023020080E67B
S11335108B4641461293002901D000F07FFF129B95
S1133520002B00D10BE528AD2B70002316AAD3770E
S113353008944EE7BC684346002B0FD016AA1F23FD
S1133540944663443360012373607B680134013320
S1133550BC607B60072B00DDB3E108364B46002BD3
S11335600CD01EAB3360022373607B6802340133DA
S1133570BC607B60072B00DDAFE10836109B802B1D
S113358000D120E153460E9A9D1A002D3CDD084AD5
S11335907B689146102D2CDD102221009246099C57
S11335A032002E004D4609E0988C0000AC8C0000DF
S11335B0DC8C0000103E0832102E16DD504610310F
S11335C0013315605060B9607B60072BF2DD3A006F
S11335D00699200002F0B8FE002800D0B7E4103E9F
S11335E0B9687B6832AA102EE8DCA9460C003500C5
S11335F016004A466419013332607560BC607B6012
S1133600072B00DD51E10836089BDB0500D5B6E049
S1133610119B33600E9B9C4673607B68644401334A
S1133620BC607B60072B00DD9DE00836089B5B07D0
S113363041D50B9B079A9D1A002D3CDDC44A7B683B
S11336409046102D26DD102221009146099C32005F
S11336502E00069D03E0103E0832102E17DDBC48F4
S113366010311060484601335060B9607B60072B0D
S1133670F1DD3A002900200002F066FE002800D0A7
S113368065E4103EB9687B6832AA102EE7DC350089
S11336900C00160042466419013324C6BC607B60EA
S11336A0072B08DD3A000699099802F04DFE002820
S11336B000D04CE4BC680B9B07998B4200DA0B00EA
S11336C00A9A94469C4463460A93002C00D0D6E0A0
S11336D0002332AE7B60FFF7DEFB149B012B00DC82
S11336E0AEE0119B01343360012373607B68BC60DE
S11336F001337B60072B00DDDFE20836199A0133C2
S11337003260189A9846944664447260BC607B6048
S1133710072B00DDDEE208360022002316981599F7
S113372003F0B8FA002800D0A4E1119D149B0135E0
S1133730013B35607360E41801239C46E044434632
S1133740BC607B60072B00DD8BE0083621AB336067
S11337501A9B9C467360434664440133BC607B609F
S1133760072B00DC61E73A000699099802F0ECFDAA
S1133770002801D0FFF7EBFBBC6832AE56E7129B82
S1133780652BAADD002200231698159903F082FA0E
S1133790002800D1E2E06F4B0134336001237360F1
S11337A07B68BC6001337B60072B00DD66E3083671
S11337B01F9B149A934200DAA4E1089BDB0700D50F
S11337C0A0E1BC6832E70B9B079A9D1A002D00DC30
S11337D0D8E6614A7B689146102D25DD1022210030
S11337E09046099C32004E4603E0103D0832102DED
S11337F017DD40461031013316605060B9607B60BC
S1133800072BF2DD3A000699200002F09DFD002806
S113381001D0FFF79CFB103DB9687B6832AA102DDC
S1133820E7DCB1460C0016004A46641901333260E5
S11338307560BC607B60072B00DD7EE20836A1E684
S11338400123089A134200D04BE773607B68119AF6
S1133850013301343260BC6098467B60072B00DC86
S113386073E73A000699099802F06EFD002801D02A
S1133870FFF76DFB7B68BC68984632AE66E73A009A
S11338800699099802F060FD002800D120E7FFF7AF
S11338905EFB089C012B00D184E1022B29D1089402
S11338A0002300240C930D94C5E43A00069909986A
S11338B002F04AFD002801D0FFF749FBBC6832AE94
S11338C0A2E63A000699099802F03EFD002801D0CC
S11338D0FFF73DFBBC6832AE40E63A000699099812
S11338E002F032FD002801D0FFF731FBBC6832AE94
S11338F044E60894002300240C930D940C980D992D
S11339005B4632AA07939146B34600E0A1464A07B4
S113391094464B4665465C1EC6080723CA083543D1
S113392011002A0003403033237028000A43EDD1EC
S11339300C900D9107995E468B4608994A4611945E
S1133940C90700D53DE132AB1B1B0E93FFF788FB83
S1133950CC8C0000C88C0000DC8C00001F98002870
S113396000DC96E2139A1499130090468B4200DD12
S113397088464346002B0CDD119B44443360434688
S113398073607B68BC6001337B60072B00DDB7E3A9
S113399008364346DB434246DB171340139AD31AD7
S11339A09846002B00DC28E1102B01DC00F0E7FC3A
S11339B0CF4A2100914610227B689246099D32002D
S11339C04C46464604E00832103E102E00DC04E16A
S11339D050461031013314605060B9607B60072B8E
S11339E0F1DD3A000699280002F0AEFC002801D06F
S11339F0FFF7ADFAB9687B6832AAE5E70D9B002BA7
S1133A0000D1CAE00C9C0D9D32ABB1461E002000D3
S1133A1029000A220023FFF779F8013E3032327080
S1133A200023200029000A22FFF770F80300040095
S1133A300D000B43EBD1320032AB9B1A11960C9460
S1133A400D954E460E93FFF70BFB00230E9332ABFE
S1133A501193FFF705FB3A000699099802F074FCEC
S1133A60002801D0FFF773FA16ABDB7FBC689846D9
S1133A7032AE60E5149B5D1E002D00DC66E69C4BB7
S1133A809946102D29DD102332009A462E0021007C
S1133A904346099C4D4603E0103E0832102E17DDC4
S1133AA050461031013315605060B9607B60072BBC
S1133AB0F2DD3A000699200002F046FC002801D00D
S1133AC0FFF745FA103EB9687B6832AA102EE7DC8E
S1133AD0A9460C003500984616004B4675603360C5
S1133AE0641929E60F9B1A68FFF7FBFB1368079319
S1133AF0FFF782FA0F9B1A68FFF784FB0F9B1A6883
S1133B00FFF7D1FB199BBA683360189B9C4673601E
S1133B107B68624401331400BA607B60072B00DDCC
S1133B2002E20836149B5D1E002D00DC7EE5704A1F
S1133B307B689146102D25DD102221009046099CBA
S1133B4032002E004D4603E00832103E102E15DDE3
S1133B5040461031013315605060B9607B60072B1B
S1133B60F2DD3A000699200002F0EEFB002801D0B5
S1133B70FFF7EDF9B9687B6832AAE6E7A9460C00BD
S1133B80350016004A466419013332607560BC6022
S1133B907B60072B00DC48E5E5E50C9B092B00D98D
S1133BA030E7089C27220C9B28A930338B5401232F
S1133BB016AA94460E936E33634408941193FFF748
S1133BC04FFA302B00D10BE23023023A137032ABA0
S1133BD09B1A0E931192FFF743FAB046A1461600C2
S1133BE00C004A4632604246444401337260BC6071
S1133BF07B60072B00DD9CE208361F9B149A9342DE
S1133C004CDB089AD20749D4149A1399D31A521A3E
S1133C1090469A4200DD98464246002A0FDD1399E9
S1133C20119A8C4662443260424672607A68444417
S1133C300132BC607A60072A00DD86E2083642461B
S1133C40D543ED1715405D1B002D00DCEEE4284A3A
S1133C507B689146102D95DD102221009046099C29
S1133C6032002E004D4603E00832103E102E85DD52
S1133C7040461031013315605060B9607B60072BFA
S1133C80F2DD3A000699200002F05EFB002801D024
S1133C90FFF75DF9B9687B6832AAE6E7199A3260E2
S1133CA0189A944672607A6864440132BC607A60FF
S1133CB0072A00DD30E20836A6E73A00069909989B
S1133CC002F042FB002801D0FFF741F9BC687B6891
S1133CD032AE13E53A000699099802F035FB002844
S1133CE001D0FFF734F97B68BC68984632AE13E51F
S1133CF0DC8C0000072307329A4301339C4694442A
S1133D0063460F93536812680D930C92002B01DBEA
S1133D10FFF77AF90C980D99002342428B41110068
S1133D201A002D2316A8C377080010430C910D9296
S1133D30984602002C3BFFF770F93A00069909985F
S1133D4002F002FB002801D0FFF701F9BC6832AE93
S1133D5018E41699159D0A0008002B00290004F0A8
S1133D60A1FC002800D0E6E25346013300D10DE265
S1133D702023129A9A430E92472A00D11CE18023F1
S1133D805B0023430893159B002B00DA21E2169A6B
S1133D900793002391461093129B662B00D1FCE1FC
S1133DA0462B00D1DBE00E9A0998453A130059429C
S1133DB0594120AB0D0003931FAB0293022323AAA6
S1133DC055441B92049200930195079B4A4600F0C8
S1133DD0F9FB129B1190672B00D039E2119B984696
S1133DE0A844E30700D48BE2002300224846079945
S1133DF002F050FF434600280AD1239B434507D2D3
S1133E00302140465A1C23921970239B9842F9D8BA
S1133E10119A9B1A14930E9B472B00D1F6E0129B28
S1133E20652B00DC26E2129B662B00D1F4E11F9B7C
S1133E301393149B139A1900914200DDD4E1E30714
S1133E4000D549E2D343DB1711001A4067230792D8
S1133E500E911293109B002B00D0CFE016ABDB7FAA
S1133E60984600239A46FFF703F90F9A0A991368B4
S1133E701960130004330F93FFF70DF83A00069905
S1133E80099802F061FA002801D0FFF760F832AE19
S1133E908EE4DE4B01343360012373607B68BC60C5
S1133EA001337B60072B7ADC0836002807D1149B8A
S1133EB0002B04D1089BDB0701D4FFF7B7FB199B48
S1133EC03360189B191973607B68B96001337B6098
S1133ED0072B00DDF2E132000832002800DACCE1E1
S1133EE011980133106014987B6044185060BC60D2
S1133EF0072B00DD37E408321600FFF797FB0F9914
S1133F000A9A0B681A60D2175A600B0004330F9395
S1133F10FEF7C1FF4B4601311C430B78FEF7F4FF5B
S1133F20BB4B1193FFF737F93A000699099802F051
S1133F300BFA002801D0FFF70AF8BC6832AEF1E5AD
S1133F404021099801F02EFB069B18601861002897
S1133F5000D14FE24023069A5361FEF78EFF23AB54
S1133F601B93049320AB03931FAB0293534601931B
S1133F7003234A4600930998079B00F023FB554608
S1133F801190119B9846129BA844462B00D02BE716
S1133F90119B1B78302B16D01F9B984424E73A00C2
S1133FA00699099802F0D0F9002801D0FEF7CFFF56
S1133FB01F98BC6832AE78E75346002B00D0DEE68B
S1133FC001339A46DBE6002200234846079902F0B3
S1133FD061FE0028E0D101235B1B1F93984403E793
S1133FE0119A32AB9B1A0E93FFF73AF8119802F02C
S1133FF079F902000E900300FFF7CDF92D2316AADC
S1134000D377984600239A46FFF735F81F9B1393FE
S1134010DA1C02DB9A4500DB0BE7129B023B12938E
S11340202C22139B48215D1E16AB9B186A4652181E
S113403012781F951A70002D00DAA4E12D212B238C
S113404016AA52181370092D00DC4CE116AA3B2362
S1134050944663449A46B146A046564600E026007C
S113406028000A21FEF74CFD741E3031217028000F
S11340700A21FEF75FFC05000928F0DC2300444612
S1134080B0464E46994603003033D8B24346023B0D
S113409018709A4500D8B4E142461B9B4546991ACC
S11340A0012307315B4201E0E85C013321AAD21805
S11340B0D0708B42F8D116A98C462E224B4662440E
S11340C09446FB1A634421AA14999B1A9C460A003D
S11340D062441A930E92012900DC45E1189A0E9B62
S11340E0944663441A000E93DB43DB171A40002303
S11340F007921393AEE601235B420A93FEF72DFF6A
S11341003A000699099802F01FF9002801D0FEF739
S11341101EFFBC6832AE3CE43A000699099802F0EE
S113412013F9002801D0FEF712FF1F9BBC6832AEC2
S11341306AE53A000699099802F006F9002801D0C8
S1134140FEF705FFBC6832AE57E53A0006990998B8
S113415002F0FAF8002801D0FEF7F9FE149B1F9A2A
S1134160BC689B1A32AE6AE553460793062B01D905
S113417006230793079B0F950E93002398469A46B0
S11341801393244B08941193FEF778FF2023129A7B
S11341909A431A3B0E929A46F1E523AB1B93049380
S11341A020AB03931FAB02935346019303234A4668
S11341B000930998079B00F005FA030053441190FB
S11341C098465546E4E62D2316AAD3779846FEF77B
S11341D0DBFF802212069446169B9946159B634486
S11341E007932D231093D7E5189A149B9446139A9A
S11341F063440E93002A00DCCEE01A00DB43DB1795
S11342001A4067230792129324E6C046C88C000024
S11342108C8C0000C08C00001F9B1393002B00DCCF
S1134220D5E05246002A00D092E0E20700D58FE0A4
S113423007930E930EE616ABDB7F0F959846534615
S113424007930E93002308949A461393FEF710FFE6
S1134250119B9846129BA844472B00D0C4E5E30762
S113426000D58EE6239B119A9B1A14930E9B472B21
S113427000D1CBE61F9B1393D2E64442103000DBFF
S1134280D0E06E481026050003E00832103C102CE4
S113429038DD1031013315605660B9607B60072B3F
S11342A0F3DD3A000699099802F04EF8002801D08F
S11342B0FEF74DFEB9687B6832AAE7E73A00069933
S11342C0099802F041F8002801D0FEF740FE1F983B
S11342D0B9687B6832AA00E6189A139B9446634433
S11342E01A000E938AE72E21302316AA521813704F
S11342F02B0016AA013130335218137022ABE2E6B8
S1134300239B85E5A946484609190133106054608A
S1134310B96008327B60072B00DCE1E53A000699BE
S1134320099802F011F8002801D0FEF710FEB968D0
S11343307B6832AAD4E5159B002B38DB16ABDB7FF8
S11343409846129B472B2EDC3D4B1193FEF723FF1F
S1134350189A139B9446634453441A000E93DB4308
S1134360DB171A40079275E501232340139300D00D
S1134370B4E60E9AD343DB171A4007926AE52F4A34
S11343807B6891462DE40123139A1B399D1A16AAC2
S11343902C335218137056E60E9B139A981A431C2A
S11343A01A000E932AE7274B1193FEF7F4FE2D23F0
S11343B016AAD3779846C4E70F9B1A1D1B689A4622
S11343C0002B36DB4B780F925946FEF79DFD534682
S11343D0002B01D1E30703D5189B581C0300BBE74E
S11343E0012325E716ABD877FEF76CFF16ABD87719
S11343F0FFF714F80C23099A13600D3B0A93FEF798
S1134400ACFD16AA2E23944663445CE616ABD8771B
S1134410FEF785FE16ABD877FEF7DDFD16ABD87731
S1134420FFF77DF8054881466DE716ABD877FEF7B0
S113443079FF01235B429A46C4E7C046DC8C000046
S1134440908C0000948C0000034B10B5002B02D01C
S1134450024800F005F810BD000000004D550000B2
S113446010B5010000230022002001F0FDFF10BD63
S1134470F0B545468046DE4657464E464246E0B5D0
S11344800C69126985B00B0002910020944200DD92
S113449090E014229446634499464A46013CA300A2
S11344A0D6181422424493469B4433681500591C81
S11344B05B4618680192FEF7B3F9031E009042D0E0
S11344C0290000274D460020B146A2463E000400C4
S11344D09C462F0008000395634604CF15042D0C59
S11344E05D43120C5A43AD192B0CD21803682D04EA
S11344F01904090C0919160C2D0C1204491B120C71
S11345001B0C9B1A0A149B1809041C14090C1B0489
S1134510194302C0B945DFD2039B4E4699465B4618
S11345201B685446002B0ED15B46019A043B9A4209
S113453004D306E0043B013C9A4202D219680029E4
S1134540F8D043461C610299404601F0A5FD0028BD
S11345502FDB4F460020009B019D013300932B6805
S113456002CF1A04120C10180A04120C821A090C35
S11345701B0C5B1A11145B1812041814120C1B0484
S1134580134308C5BE42EAD20199A3008C46634492
S11345901A68002A0DD1043B0A00994204D306E0AC
S11345A0043B013C9A4202D219680029F8D04346E0
S11345B01C61009805B03CBC90469946A246AB46A7
S11345C0F0BDC046F0B557464E464546DE46E0B51A
S11345D0016C99B082461D0016001F00002909D005
S11345E00123426C93404A608B6001F049FB002335
S11345F052461364B846002F37DB0023259A136014
S11346004246D64B1A409A4218D00022002330006A
S1134610390002F03FFB00282FD00123249A1360B5
S1134620269B002B00D12AE2CD481860013819B02E
S11346303CBC90469946A246AB46F0BDC94B249A71
S11346401360002E0BD14346180308D1269BC6489D
S1134650002BECD003000833269A1360E7E7269B6F
S1134660C248002BE3D0C31CF6E70123259A680057
S11346701360430898461F00C2E716AB019317ABBB
S1134680009332003B00504601F0BCFD4346834694
S11346901A0D00D1D6E13B03B54C1B0B1C43B54BA3
S11346A030009846169B21009946002390440F93AE
S11346B00022B14B03F0E0FCB04AB14B03F05CFACA
S11346C0B04AB14B02F014FB040040460D0004F064
S11346D03DF8AE4AAE4B03F04FFA02000B00200047
S11346E0290002F005FB04000D0003F0FBFF00228B
S11346F0039000232000290002F0D2FA002800D001
S1134700B1E20123039C0C93162C10D8A149E300B9
S1134710C9183200086849683B0002F0D5FA00283D
S113472000D11DE32300013B039300230C934B466C
S113473042469A1A002306931300013B049300D5C2
S1134740A1E2039B002B00DA84E29C460D93002334
S1134750049A9946110061440491229B092B00D9C3
S11347608FE10124052B02DD0024043B2293229BCC
S1134770032B01D100F0CEFC01DC00F092FC229B63
S1134780042B01D100F040FC01230B93229B052B49
S113479001D000F08BFC239A039B944663440E9350
S11347A0013307931D1E01DC00F049FD079B984669
S11347B00023524600215364172D0AD901220433E1
S11347C05B0018001430110001328542F8D25346C0
S11347D05964504601F02CFA5346186443460A9033
S11347E00E2B00D961E1002C00D15EE110961197E7
S11347F0039E002E01DC00F025FD32000F21654BE5
S11348000A40D2009B1836111C685D68F30601D477
S113481000F0CAFC604B0E401A6A5B6A109811994A
S113482002F076FD0323984608900991002E11D0DA
S1134830594F0123334209D09C463A687B682000D3
S11348402900E04403F098F904000D0076100837BD
S1134850002EEED12200089809992B0002F058FD91
S113486006000F000C9B002B09D00022404B3000A7
S1134870390002F015FA002801D000F0C2FD4046CC
S113488003F064FF32003B0003F076F90022434B4F
S113489002F02EFA424A0B009446634408900991B0
S11348A00993079B002B01D100F050FC039B139349
S11348B0079B12930B9B002B01D100F01DFD129B53
S11348C000205A1E334BD2009B181A685B68354986
S11348D002F01EFD089A099B03F0CEFB0890099193
S11348E03900300003F0FEFE040003F02FFF020045
S11348F00B003000390003F0BFFB05000E000A9ADC
S11349003034511CE7B21491177033000898099998
S11349102A0002F0D9F9002801D000F0FEFD2A0097
S113492033000020124903F0A7FB02000B00089893
S1134930099902F0C9F9002801D000F0E7FD129BA3
S1134940012B01D100F078FC0A9A129B944663442F
S113495098464B461293149B994638E00000F07F2A
S1134960C98C00000F270000EC8C0000F88C0000BC
S11349700000F03F01FCFFFF0000F83F61436F635C
S1134980A787D23FB3C8608B288AC63FFB799F5064
S11349901344D33F288D0000008D000000001C400C
S11349A00000C0FC0000E03F2A0033000020B949A9
S11349B003F062FB089A099B02F072F9002801D007
S11349C000F074FDA146444501D100F033FC089881
S11349D009990022B04B03F0CFF80022AE4B0890A7
S11349E009912800310003F0C7F80D00040003F01A
S11349F079FE070003F0AAFE02000B002000290044
S1134A0003F03AFB4B463037FFB25C1C1F70089A28
S1134A10099B05000E0002F043F90028C4D0139B43
S1134A2003935946504601F02BF900232370039B4E
S1134A30249A01331360269B002B00D1A8E31C6049
S1134A400A98F4E5169B9946179B4B441C00934B1C
S1134A50E318202B00DC7EE13100914A4046A21885
S1134A60D1400A004021CB1A9840104303F0B0FE15
S1134A70631E984601238B4D0F93491918E68A4803
S1134A80D5E50023524600215364504601F0D0F886
S1134A905346186401235B4207930E9302330022AA
S1134AA00B9300230A9023922293179B002B00DA86
S1134AB0ABE0039A0E2A00DDA7E07C4BD2009B18E2
S1134AC05C681B6804930594239B002B00DAA7E21F
S1134AD0049C059D300022002B00390002F018FCD4
S1134AE003F000FE804603F031FE22002B0003F0A9
S1134AF043F802000B003000390003F0BDFA4346CE
S1134B000A9A30331370079B06000F00541C012BC4
S1134B104ED00022604B03F02FF800220023060041
S1134B200F0002F0B7F8002800D07AE70A9B079A32
S1134B309D1C9C465B46069353466244AA46049CCD
S1134B40059D914607930FE00022534B03F014F8A0
S1134B5001239C460022002306000F00E24402F0D9
S1134B6099F8002800D0D9E222002B003000390047
S1134B7002F0CEFB03F0B6FD804603F0E7FD220011
S1134B802B0002F0F9FF02000B003000390003F0A3
S1134B9073FA53464246013B303206000F00D346B7
S1134BA01A70D145D0D1069B54469B46079B9A4622
S1134BB032003B003000390002F09AF806000F0082
S1134BC002000B000498059902F06AF800280CD141
S1134BD00498059932003B0002F05CF8002800D1EB
S1134BE01FE74346DB0700D41BE7651E2F780A9BAB
S1134BF006E09D4200D151E3023C27782C00013DA0
S1134C00392FF6D001372F700BE70B9A002A4FD0BB
S1134C10229A012A00DC2CE2079B5C1E4B46A1452C
S1134C2000DAB8E21C1B079B002B00DAD4E3069BD6
S1134C300893079B069A012194469C446246069277
S1134C40049A504694469C446346049301F0B0F899
S1134C50804632E0069A039BD21A5B4299460023AF
S1134C6006920D9379E5039803F070FD0B000200A2
S1134C702900200002F00EF8020050425041039B2C
S1134C801B1A03933DE501239B1A06930023049307
S1134C9057E5C0460000F03F000024403204000005
S1134CA012040000000010FEC88C0000288D0000D3
S1134CB0069B4C4608930023984608990B1E0EDD6C
S1134CC0049A002A0BDD934200DD87E1069AD21A8A
S1134CD00692089AD21A0892049AD31A04934B465D
S1134CE0002B1AD00B9B002B00D1BBE1002C10DD54
S1134CF041462200504601F00FF95A460100804611
S1134D00504601F05FF805005946504600F0B8FFE0
S1134D10AB464B461A1B00D0A5E10121504601F0D9
S1134D2047F80D9B8146002B1DDD1A0001005046FB
S1134D3001F0F2F8229B8146012B00DC50E10024B3
S1134D404B461B6903339B004B44586800F0E8FF53
S1134D5020231B1A10E020223000D31A984085E645
S1134D6000230C93E3E4229B0024012B00DC8BE161
S1134D700D9A0123002AE3D104991F208C46634431
S1134D80184000D1AEE020231B1A042B00DCCCE336
S1134D901C23181A069B9C46844463460693089B6E
S1134DA09C46844463468C46844408936346049337
S1134DB0069B002B05DD59461A00504601F00CF9FC
S1134DC08346049B002B05DD49461A00504601F03A
S1134DD003F981460C9B002B00D094E0079B002B29
S1134DE000DC75E10B9B002B00D1A6E0089B002B97
S1134DF005DD41461A00504601F0EEF88046434670
S1134E000C93002C00D050E2079C0A9A013C23002A
S1134E109446634408930123334007934B46069317
S1134E200C9B574645465E4692469846069B300084
S1134E3019009946FFF71CFB03000B90303329003F
S1134E403000049301F028F9494604004246380032
S1134E5001F03CF9C3688146002B00D01EE101003B
S1134E60300001F019F983464946380000F008FF84
S1134E705B46229A134303D1079B002B00D106E320
S1134E80002C00DAA8E1229B1C4303D1079B002BD2
S1134E9000D1A1E15B46002B00DD82E26946524667
S1134EA05346097C5C1C1170089A524500D18AE271
S1134EB0310000230A22380000F0ECFE0023060033
S1134EC00A2229003800454500D1E1E000F0E2FE65
S1134ED04146050000230A22380000F0DBFEA2460A
S1134EE08046A3E71C20069B9C46844463460693A5
S1134EF0089B9C46844463460893049B9C468444D4
S1134F006346049354E74946584601F0C5F800281F
S1134F1000DB63E7039B5946013B03930A2200230A
S1134F20504600F0B7FE0B9B8346002B00D0CAE22C
S1134F300E9B002B00DCD8E207930A9B5D460024FD
S1134F40079F9B4606E0290000230A22504600F0F2
S1134F50A1FE050049462800FFF78AFA5B46303077
S1134F6018550134BC42EEDBAB460600079C002C0E
S1134F7000DC37E20A9B00279C4664445946012220
S1134F80504601F029F84946834601F085F8002887
S1134F9000DC44E1651E2B780A9A06E0954200D1B4
S1134FA0B1E0023C23782C00013D392BF6D00133CB
S1134FB02B704946504600F063FE4346002B00D157
S1134FC02FE5002F05D0474503D03900504600F0A7
S1134FD057FE4146504600F053FE22E5130075E6A5
S1134FE0002E00D0ABE63B030024002B00D0BFE62C
S1134FF0BA4B3B4200D1BBE6069B01340133069316
S1135000049B01330493B3E601230B93239B002BEE
S113501000DCD1E01D0098460E930793FFF7C8FB10
S1135020079B002B00DD53E500D0ADE00498059903
S11350300022AB4B02F0A0FD3B00320001F04EFE1B
S1135040002399469846002855D0239B0A9CDB43AD
S113505003934946504600F013FE4346002B00D10B
S1135060DFE4B6E74A465946504600F055FF83460A
S113507053E60F9A002A00D1B6E19A4A4C46944668
S1135080069A63440892D5E5002E00D070E6AAE79C
S113509000F000FEA24605008046C7E601239B46B9
S11350A0E2E600230B93229B022BAFD0002453464D
S11350B021005C64504600F0BBFD53461864012394
S11350C05B4207930E9302330A9023940B93ECE410
S11350D0229B022B00DC85E6079B002BB5D14946B9
S11350E00522504600F0D6FD81460100584600F0E6
S11350F0D3FF0028A9DD31230A9A1370039B541CA3
S113510001330393A5E7039B0A9A013303933123E5
S113511013704EE700230B93FFF73DFB069B5C46A1
S11351209B46079B9A467CE4404603F00FFB320003
S11351303B0002F021FD00226B4B01F0D9FD6B4ACC
S11351400B00944663440890099109930022644B30
S11351503000390002F090FF089E099F32003B00A6
S113516004000D0001F0B0FD002800D0B2E0802062
S113517000068446390061440B00320020002900F7
S113518001F08EFD002857D00023994698465CE72D
S11351900A98FFF74CFAE21A0D9BA1469C469444E8
S11351A0634600240D933EE5109A119B08920993DF
S11351B002239846FFF73AFB00235246002153642A
S11351C0504600F035FD5346186401230A900793B6
S11351D023930E93FFF707FB43460C935B46069A13
S11351E0A846B3465546049E9146BA46002B10DDA8
S11351F059460122380000F0EFFE4946834600F08C
S11352004BFF002800DC57E1392E00D122E10B9E30
S113521031360C9B47466C1C2E709846C9E6002814
S113522003D1F30701D5B5E61C00631E1A78302AB2
S1135230FAD0BEE6129B9946109E119F35E40125D3
S1135240FFF7B4FA039B002B00D1D4E01098119916
S11352505C420F23264A2340DB00D3181A685B689C
S113526002F08AFC241106000F00002C00D149E151
S1135270022398461F4D0123234209D09C462A68E5
S11352806B6830003900E04402F076FC06000F0041
S113529064100835002CEED1FFF7E4FA039B3027A5
S11352A00133039330232B70ACE45968504600F06B
S11352B0BFFC4346414604001B690C319A1C920012
S11352C00C3000F063FC01222100504600F084FE03
S11352D00C9099E50023994698460CE70000F07F6E
S11352E0000014403304000000001C400000C0FC17
S11352F0288D0000008D0000129B8F49013BDB00CC
S1135300C91808684968089A099B02F035FC14908A
S113531015913900300003F0E5F9050003F016FAA1
S113532002000B003000390002F0A6FE129B089028
S113533009910A991A008C46303562444C1C0D7050
S11353409046012B1BD008980999250000227B4B1D
S113535002F012FC0F00060003F0C4F9040003F08D
S1135360F5F9303402000B003000390002F084FEFD
S11353702C700135A845E9D1444608900991149848
S1135380159900226E4B01F0B3FC089A099B01F0B9
S113539087FC002867D0139B651E03932F780A9B14
S11353A02EE44346B3460C93049E069BA8469946B6
S11353B05546BA46392E4DD00C9B013647466C1CD7
S11353C02E709846F5E54246069BB346BA46049EBF
S11353D099462F009046D1E5069B079A9B1A08939D
S11353E0002327E40124C5E53623169A4C469B1A6C
S11353F0069A08921EE40223109E119F9846FFF716
S113540031FA079B002B00D18EE60E9C002C00DCA9
S113541012E7039B0022013B13933000474B3900F2
S113542002F0AAFB060040460F00013003F08EF99B
S113543032003B0002F0A0FB0022424B01F058FC7A
S1135440414A0B00944663440890099112940993CD
S1135450FFF730FA39232B700C9B47466C1C984697
S11354600A9A3923A1E5149A159B0020344902F0C5
S113547003FE089A099B01F027FC002801D1DBE612
S11354801C00631E1A78302AFAD0FFF7C8FA434684
S1135490B3460C93049E069BA84699465546BA46C5
S11354A0392ED7D0002C00DDB1E6B2E6139A4D4672
S11354B003920A9BFFF7A4FB002800D0A9E6F30798
S11354C000D4A6E6A0E6002341460A22504600F096
S11354D0E1FB0E9B8046002B01DD079386E4229BB3
S11354E0022B1FDC0E9B079380E4229B022B19DC0A
S11354F04946FEF7BDFF0A9B303018700E9B06002C
S1135500079333E502239846FFF7ACF9139B149CE9
S113551003930A9B1D00FFF773FB139B149C0393D7
S1135520FFF77FFA0E9B0793D6E5042B00D13FE4E7
S11355303C23181AD7E4C046288D000000002440FC
S11355400000E03F00001C400000C0FC70B5094BA7
S1135550094CE41AA41009D0084AA518AD00ED18A6
S11355602B68013C9847043D002CF9D103F01AFD47
S113557070BDC046B08F0000B48F0000FFFFFF3F36
S1135580044B1B68586B002801D0F0307047024868
S1135590FBE7C04600000020440800207047C046D6
S11355A07047C046F0B557464546DE464E46E0B520
S11355B00D000B3583B00700162D00D89FE007239C
S11355C09D4300D5C4E0A94200D9C1E000F020FB0E
S11355D0F823FF339D4200D88FE2680A00D1BBE074
S11355E0042800D962E138239846A8098044393058
S11355F0C100D24E71180839CC68A14219D00323D6
S113560062689A431300521B0F2A00DDAAE0002AA5
S113561000DB88E003239C4608E06246636893430A
S11356205A1B0F2A00DD9DE0002A7CDAE468A142BF
S1135630F3D1320034690832944200D190E103235B
S1135640616899438946491B0F2900DD62E1726153
S11356503261002900DB87E0B94A4B46914500D905
S113566030E1DB08FF3A9910FF3A8A40DB007168A9
S11356709B190A4399687260E360A1609C601300FF
S1135680CC6001218210914099426FD80B4205D120
S113569003229043490004300B42FBD00323984675
S11356A0C3009946B144CC4682466346DC68A445AF
S11356B007D157E1002A00DB66E1E468A44500D184
S11356C050E14246636893435A1B0F2AF2DD0120DE
S11356D08046611905436560A068E5680836C560C1
S11356E0A8604046F160B16010434860CE608E60AF
S11356F03800E25000F094FA2000083021E010292C
S113570026D8380000F084FA1025182302208B4E86
S1135710F3181A005C68083A944200D12EE103237E
S113572062689A431300E268A168CA60916001222A
S1135730E318596838000A435A6000F071FA2000EF
S1135740083003B03CBC90469946A246AB46F0BD37
S11357500C2300203B60F4E780213F234020890094
S1135760984646E7404664E74B46E0E70323B468BF
S113577062689A439046AA4203D3531B0F2B00DD61
S113578086E0230043446F4A01936F4B93461B68A2
S11357901268EB18013200D168E16C4A9446634404
S11357A01B0B1B0300930099380000F089FD0300D4
S11357B08146013361D0019B834200D9FFE0644BF1
S11357C0009A9A461B689C46534662441A60019BA1
S11357D01100834200D155E15B461B68013300D1BF
S11357E06CE14B46019A9B1A5918534619600723DA
S11357F04A46134000D124E1082189465549D21A6A
S11358009144CB1A009A38004A441105090D5B1AD9
S113581019009B4600F054FD431C00D142E14B4665
S1135820C01A01235844184353461B685B441900AB
S1135830534619604B46B3605860B44213D0434694
S11358400F2B00D8E8E04346072260680C3B9343E3
S1135850063A024005201A436260E21850609060E4
S11358600F2B00D922E13C4B1A68914200D91960F0
S11358703A4B1A68914200D919600323B4686268EC
S11358809A43531B954200D9C9E00F2B00DCC6E0B4
S11358900122290013431143651961603800B56082
S11358A06B6000F0BDF9200008304AE714287AD96B
S11358B0542800D9BAE06E239846280B80446F30F0
S11358C0C10096E65A0A042A73D9142A00D9D0E0F2
S11358D011005C325B31D20008235B429C46B21853
S11358E0944463469A6803239846944500D1ABE0F8
S11358F0434651689943894500D395E0926894459D
S1135900F6D16346DA6873686146E260A160946028
S1135910CC60B6E6012360191D4365607061306197
S1135920C26082601A004B460A4342603800E1506C
S113593000F076F92000083003E7C0463404002064
S1135940FF0100003C080020000A00200F100000A6
S1135950D009002008100000F8090020FC090020EC
S113596073688EE608239B46073BDC449B46DA4477
S113597043465246134200D097E637E0DC680230D3
S1135980A34200D155E6CAE60122E318596838005B
S11359900A435A60E368A268D3609A6000F040F951
S11359A020000830CDE65B23984680445C30C1007B
S11359B01FE69A09110039323831D2008CE7B4421B
S11359C000D05AE74F4B009A9A461B689C465346B0
S11359D0624411001A60FFE608235B429C46E144DE
S11359E04B469B680138994500D084E04346034206
S11359F0F2D173688B4373604900994200D9B5E6CC
S1135A00002900D1B2E650460B4200D048E64900D6
S1135A1004300B42FBD043E601234A46536038006E
S1135A2000F0FEF800208CE694466AE7AA235B00A7
S1135A30984211D8DD3B9846E80B80447830C10089
S1135A40D7E580235B01DDE68910023B8B40726859
S1135A5013437360624657E72B4B98421CD87C2350
S1135A609846A80C80447D30C100C2E510330093F1
S1135A7099E6542A26D84B461A0B11006F326E3120
S1135A80D20029E71B0500D0A6E60120009BB268DE
S1135A90434403435360E6E6FE217E237F208900CE
S1135AA09846A6E5002301209B46BDE62100380068
S1135AB0083100F0CFFD53461968D4E65B464A46E8
S1135AC01A6094E6AA2149008A4206D84B46DA0BAA
S1135AD0110078327731D200FEE60B498A4206D8AB
S1135AE04B469A0C11007D327C31D200F4E6FE2242
S1135AF07E219200F0E673687EE72B00E808083305
S1135B0005E6C046D00900205405000070B5CDB2AA
S1135B10830734D0541E002A1BD00378AB4219D01B
S1135B20032204E0013C14D30378AB4212D00130C9
S1135B301042F7D1032C0ED8002C0AD00378AB42C4
S1135B4008D0041902E00378AB4203D00130844248
S1135B50F9D1002070BDFF220B061B0C1140194324
S1135B600B04084E19430368074A4B409A189A439A
S1135B703242E3D1043C0430032CF4D8DCE71400B3
S1135B80D8E7C04680808080FFFEFEFEF0B50500A9
S1135B900F2A2FD90B0003439B0734D116000C00A6
S1135BA00300103E350901352D01451927681F6092
S1135BB067685F60A7689F60E7681034DF60103330
S1135BC09D42F3D10F239E43103685198919134042
S1135BD0032B1AD91E1F0023B4080134A400CF5884
S1135BE0EF500433A342FAD10324A643331D2240C9
S1135BF0C918ED18002A05D00023CC5CEC540133FD
S1135C009342FAD1F0BD0500F6E71A00F2E7C04668
S1135C1010B50248FFF7C2FC10BDC046140A0020AC
S1135C2010B50248FFF7BCFC10BDC046140A0020A2
S1135C3070B50400C06C0D0000280AD0AB00C31876
S1135C40186800280FD002681A6000230361C3603B
S1135C5070BD21220421200000F080FCE0640028B3
S1135C60ECD10020F4E70126AE40721D9200012120
S1135C70200000F073FC0028F3D045608660E4E760
S1135C80002906D04B689A00C36C9B181A680A60F6
S1135C9019607047F8B5CE4647468146080080B57E
S1135CA00D000C691F0000211430036801311E042B
S1135CB0360C56431B0C5343F619370CDB193604C8
S1135CC01F0C360C1B049B1908C08C42EDDC002F02
S1135CD008D0AB689C420ADA231D9B00EB18013400
S1135CE05F602C6128000CBC90469946F8BD6B6837
S1135CF04846591CFFF79CFF29002B6980469A1CD3
S1135D0092000C310C30FFF741FF6B689A004B4650
S1135D10DB6C9B181A682A601D604546DCE7C046A8
S1135D200300020C0020002A01D11B0410301A0EBB
S1135D3001D108301B021A0F01D104301B019A0F44
S1135D4001D102309B00002B03DB01305B0000D447
S1135D502020704703685A0709D00022D90704D4C9
S1135D609A0720D402229B0803601000704719048C
S1135D700022002901D11B0C1032FF21194201D14C
S1135D8008321B0A190701D104321B09990701D1F2
S1135D9002329B08D90704D45B0801D12022E4E72E
S1135DA001320360E1E75B0803600122DDE7C046DE
S1135DB010B50C000121FFF73BFF0123446103618F
S1135DC010BDC046F0B557464E464546DE46E0B5E2
S1135DD014690E6985B00F001500A64204DA330079
S1135DE0170026000D001C0033199846BB6879681B
S1135DF0984500DD0131FFF71BFF14220300944690
S1135E0063449B4643469B005B4419000293039002
S1135E105B4600228B4503D2029904C39942FCD805
S1135E201423A4009A4614372300BC46AA44B6009F
S1135E3053440097B44401939A454FD253461B6888
S1135E401E04360C20D05C460027009D210008CC9F
S1135E5004CD9946484613041B0C73430004000CFC
S1135E601B18D819130C4A467343120C9B18020CC6
S1135E709B1802041F0C120C1B0413430B60AC454B
S1135E80E4D8534627601B681E0C20D05B460021D3
S1135E901B685C4618000F006246009D2988000CB0
S1135EA071430918C9191B0408041B0C034323601C
S1135EB008CD60681B0C734307043F0CDB19090C05
S1135EC05B181F0C0434AA42E8D8944623600423C8
S1135ED09946019BCA44CB445345AFD84346002B53
S1135EE00EDD029B043B1A68002A09D1424603E0F6
S1135EF0043B1968002902D1013A002AF8D19046DE
S1135F00039B424618001A6105B03CBC9046994672
S1135F10A246AB46F0BDC046F8B54746CE4603237D
S1135F2080B580460F00140013403AD1A4103E00FF
S1135F30002C25D043469D6C002D3BD03E00002311
S1135F4001279946274207D1641019D028680028F0
S1135F501BD005002742F7D02A0031004046FFF746
S1135F6031FF002E1BD04246D26C736894469B00CE
S1135F7063441A68641032601E600600002CE5D188
S1135F8030000CBC90469946F8BD2A0029004046D2
S1135F90FFF718FF4B46286003600500DAE70600A8
S1135FA0D2E70B4A013B9B009A580023FFF772FE8D
S1135FB00700BBE701214046FFF73AFE054B050009
S1135FC04361012303614346986400230360B5E7FA
S1135FD0F08D000071020000F8B54E464546DE46DD
S1135FE05746E0B50E00336954119846A044434621
S1135FF05D1CB3688346914649689D4203DD0131C7
S11360005B009D42FBDC5846FFF712FE030084460A
S11360101433002C06DD0021A4001A001B1902C24F
S11360209342FCD132694846970031001F22143153
S11360301040CF198146002825D02022121A9246FA
S1136040002248460C688440504614431C6004C92E
S11360500433C2408F42F4D81A60002A01D0454666
S113606002356346013D1D61736860469A005B46D4
S1136070DB6C9B181A6832601E603CBC90469946E3
S1136080A246AB46F8BD04C904C38F42E9D904C98A
S113609004C38F42F7D8E4E70A69036930B5050001
S11360A0981A11D1920014351431AB18891801E0F3
S11360B09D4209D2043B04391C680A689442F7D013
S11360C0944280410122104330BDC046F8B5454694
S11360D0DE4657464E4614000B691269E0B5884601
S11360E09D1A1AD10F0014218C4692001437A4442F
S11360F0BB18624402E09F4200D370E0043B043AC0
S11361001E6811688E42F6D000D371E043463E000B
S1136110A04667461C00012506E0002D6ADB4746C1
S1136120260000251437143643465968FFF780FDCE
S113613043468146C56018694D4683009C462369E1
S1136140BC449B0098460023B04414359A4600E0B2
S1136150270004CE3C009346594608CC09041A048F
S1136160120C5244090C521A190C5B461B0CCB1A24
S113617011145B1812041914120C1B048A461343DD
S1136180291D2B600D00B045E2D8A44516D908CCD2
S11361901A04120C524416141B0C9B1912041E14DC
S11361A0120C1B041343B24608C5A445EFD862463B
S11361B00324D21B053AA243043289180439002B64
S11361C004D104390B680138002BFAD04B4618610E
S11361D048463CBC90469946A246AB46F8BD0021D1
S11361E0FFF726FD01230361002381464361EFE7A6
S11361F0664699E727000E00A046143714360C00B3
S1136200012591E7F0B501211C0083B0089E15001B
S1136210FFF70EFD2303640007001B0B640D02D07F
S11362208022520313430193002D19D06846009530
S1136230FFF790FD002830D1009B7B61019BBB617F
S11362405A1E93415D1C3D61002C14D0194B9C4691
S1136250352364442418181A099B3460186019E023
S113626001A8FFF777FD019B20307B610123012505
S11362703B61002CEAD1104B9C46104B6044EB1858
S11362809B00FB1830605869FFF74AFD6B01181A30
S1136290099B1860380003B0F0BD019B202219004F
S11362A0121A91400A00C340009901930A437A618B
S11362B0C5E7C046CDFBFFFFCEFBFFFFFFFFFF3F5F
S11362C0002370B5064C050008002360FBF788FF27
S11362D0431C00D070BD2368002BFBD02B60F9E772
S11362E0280A002010B5830725D00378002B24D07A
S11362F00300032102E01A78002A1AD001330B426A
S1136300F9D119680E4A0F4C8A188A43224206D1E1
S1136310043319680A4A8A188A432242F8D01A00B8
S11363201B78002B03D0013211780029FBD1101AFD
S113633010BD181AFCE70300E3E70020F8E7C046A5
S1136340FFFEFEFE80808080F0B557464E46DE4656
S11363504546E0B5936883B001900E009246002B49
S113636070D08D6813682C0008681D0046E09022E8
S1136370B389D200134230D03169421A934670690E
S113638042001218D00F8218521090465A46501CE0
S1136390C0194246404501D9804602008020C00011
S11363A0034238D011000198FFF7FCF8041E54D0C2
S11363B05A463169FFF7EAFBB3892A4A134080221F
S11363C01343B381434620005A463461B8463C0027
S11363D0584473619B1A3060B3604246494600F0EA
S11363E02DFAB3681C1B3368B4604344336018004F
S11363F053469B68DF1B53469F6023D06F682B0076
S11364000835002FFAD01B68A0469946A742AED2A1
S11364103C00B846E1E7019800F060FA041ED1D1CF
S1136420019C3169200000F015F90C2323604022FF
S1136430B38901201343B381524600234042936041
S1136440536003E0002352460020536003B03CBC79
S113645090469946A246AB46F0BD0C23019A1360C0
S1136460E5E7C0467FFBFFFFF0B54E464546DE46F6
S11364705746E0B5364D83B00600286898460F00AD
S11364809146FFF78BF8334B1C68A4235B00E0585C
S1136490002852D043681F2B13DC5A1C0192002E93
S11364A028D1019A02339B0042601F502868FFF7ED
S11364B077F8002003B03CBC90469946A246AB4610
S11364C0F0BD254B002B3DD0C820400000E000BFAC
S11364D0002837D0A42200235200A1584360016051
S11364E0A05040328350043283500133019300237F
S11364F0002ED6D09A00924682444A4688215446B9
S11365006250C4225200914681444A4687399940D8
S113651012688B460A4394464A46614611608422B7
S113652041465200A150022EBBD102005C468D327E
S1136530FF3211680C431460B3E720004D30FF3084
S1136540E050A7E72868FFF72BF801204042B1E7A5
S113655030040020208B00000000000010B55143DF
S1136560FFF720F8041E1CD00300083B5A680323DD
S11365709A43043A242A16D80300132A0DD9002179
S11365800833016041601B2A07D98160C160242A55
S11365900DD1030001611833416100221A605A6071
S11365A09A60200010BD0021FCF7DEFBF9E7030030
S11365B01033F2E7F8B50C000600FFF729FB204F73
S11365C0BB685D6803239D431E4B2C1B9C4664449F
S11365D0240B1D4B013C24039C4207DD00213000A9
S11365E0FFF76EFEBB685B19984204D03000FFF7DA
S11365F017FB0020F8BD61423000FFF761FE431C29
S11366000DD00122BB682D1B15435D600F4B30007C
S11366101A68141B1C60FFF703FB0120EAE7002142
S11366203000FFF74DFEBA68831A0F2BDEDD0849F0
S11366300968401A0549086001210B435360D5E7F6
S113664034040020EF0F0000FF0F0000D0090020E9
S11366503C080020F8B504000D1E3CD0FFF7D8FA22
S11366602900083948680123050003269D434A1977
S11366709C46614F5368B343BE68B24256D06646E7
S1136680536006420AD13E0008680836091A2D18DC
S11366908868B04265D0CE68C660B0600120D61864
S11366A07668064233D0554B284348604D519D428D
S11366B012D8ED08FF3BAA10FF3B93407A68ED0027
S11366C013437B60EF19BB68CF608B60B960D960FE
S11366D02000FFF7A5FAF8BD680A042850D8A809D5
S11366E0020039303832C00038180838836803266D
S11366F098424CD05A68B243954230D29B68984233
S1136700F8D1C368CB6088609960C160E0E7ED1898
S11367103B4E9368B34242D0D2682843DA60936018
S1136720364B48604D519D42D6D8C2E76246EB18BD
S1136730024206D10A68891A88689B18CA68C2602E
S1136740906001221A434A602E4AB960126893424B
S1136750BED32D4B20001968FFF72CFFB8E71800B3
S1136760CFE76646D018406830423FD190685D1943
S1136770D368C360986063462B434B604D51A7E7D1
S1136780142814D802005C305B32C000ACE701234B
S1136790921093407A6813437B600300B2E7284366
S11367A0D9609960CB608B6048604D5190E7542864
S11367B005D8280B02006F306E32C00094E7AA227D
S11367C05200904205D8E80B020078307732C000BE
S11367D08AE70E4A904205D8A80C02007D307C322C
S11367E0C00081E7FE207E2280007DE763462B43C4
S11367F04B6015606CE7C04634040020FF010000C4
S11368003C04002040080020000A00205405000039
S113681082B000290AD0002A0BD0002B0BD01378A9
S11368200B601078431E984102B0704701A9002AFA
S1136830F3D10020F8E702204042F5E7F0B58842A2
S11368400AD98B18984207D2531E002A03D0CA5C77
S1136850C254013BFBD2F0BD05000F2A08D8002A20
S1136860F9D00023CC5CEC5401339342FAD1F2E723
S11368700B0003439B072DD115000C000300103DB2
S11368802F0901373F01C71926681E6066685E60DC
S1136890A6689E60E6681034DE6010339F42F3D130
S11368A00F24A5431035491914404519032C13D955
S11368B00023271FBE080136B600CC58EC50043321
S11368C0B342FAD10326B7433C1D09192D193240AE
S11368D0C7D1C0E70500C4E72200C0E7F0B54E46C3
S11368E04546DE465746E0B585B001900E001500DA
S11368F0002900D19EE037000198083FFFF788F98E
S11369007A68032314009C432B000B33B946162BDF
S113691047D8102110238846454546D89C4249DA79
S1136920CC4938198B4689680290884200D1C2E06C
S113693001218A46406801000390504681438C46F9
S113694002998B46DC446146496801424DD01042AD
S113695000D1A2E029000198FEF724FE051E39D0DB
S1136960012302007968083A99437F18BA4200D19A
S11369702EE1221F242A00D914E1132A00D9E8E0C9
S113698003003200116819605168596092689A6076
S1136990019C31002000FFF75DFE2000FFF740F965
S11369A01BE007218B439846B6D50C23019A00259A
S11369B0136012E035004346E31A0F2B25D84B46EB
S11369C0012249465B68134023434B604C4463688F
S11369D01A4362600198FFF723F9280005B03CBC14
S11369E090469946A246AB46F0BD032103988C46D7
S11369F0884321188B46994221DB029A3500D368DB
S1136A0092685C46D3609A60D5E74A4601204646C0
S1136A1052684946024032434E4641440343726041
S1136A204C444B6063680831184360600198FFF779
S1136A3011FECFE71100FEF7B5FD0500CDE7514685
S1136A40114200D086E761463A68BA1A9246526803
S1136A508A4380188346A3449B4526DB029AD36865
S1136A609268D3609A605346524655469268DB68F2
S1136A700835D3609A60221F242A00D996E0132A8D
S1136A8072D95346316899607168D9601B2A00D95C
S1136A90A4E032001033083268E03A68BA1A924629
S1136AA051460322496891430A009346A3449B45F7
S1136AB000DA4FE7D7E70320029984464968814307
S1136AC04046091910300290814258DAD20700D5A5
S1136AD040E760463A68BA1A92465268824302987E
S1136AE0511803918842E0DC534652465546926859
S1136AF0DB680835D3609A60221F242A00D98EE00F
S1136B00132A00D888E05346316899607168D960C7
S1136B101B2A00D988E0320010330832116819604A
S1136B205168596092689A6051465B4642464144B6
S1136B309960039B01989A1A01231A434A605246AA
S1136B40526813404246134352465360FFF768F8B5
S1136B5043E733680360736843601B2A2DD803003E
S1136B603200083308320DE72B00320011685C460E
S1136B7019605168D146596092689A601BE7434690
S1136B80FA185B469A604346C91A012319435160B7
S1136B907A6801981340424613437B60FFF740F83C
S1136BA035001AE73100FFF749FEF1E6310028000D
S1136BB0FFF744FE5C46D146FDE6B3688360F368A4
S1136BC0C360242A15D00300320010331032D9E6F2
S1136BD0536803229343E4183500ECE65346B16846
S1136BE01961F1685961242A0CD03200183310322B
S1136BF0BCE733693200036103007169183318324A
S1136C004161BFE65346326951469A613200706968
S1136C1020331832C861A9E72B0032007EE7310027
S1136C202800FFF70BFE7FE75346B1681961F1684E
S1136C305961242A03D03200183310326EE75346C8
S1136C40326951469A613200706920331832C86142
S1136C5064E7C04634040020002904D0FF2A04D885
S1136C6001200A7070470020FCE78A23036001209A
S1136C704042F7E78446101C62468C46191C634662
S1136C8000E0C0461FB500F015FF002801D4002124
S1136C90C8421FBD10B500F06FFE4042013010BD68
S1136CA010B500F007FF002801DB002010BD012013
S1136CB010BDC04610B500F0FDFE002801DD002027
S1136CC010BD012010BDC04610B500F08FFE002895
S1136CD001DC002010BD012010BDC04610B500F03D
S1136CE085FE002801DA002010BD012010BDC04639
S1136CF0F8B54546DE4657464E460C03E0B54E0011
S1136D00C90F88460D00610A440F0C43C7001903DC
S1136D105800DB0F9B464B0A510F0B43760D400D79
S1136D201900D200D84500D1AEE0351A002D00DCA0
S1136D30F6E000280FD1134300D1DBE06B1E002BDB
S1136D4000D037E1BA1A9742BF41641A7F42E41B6C
S1136D500126170024E0C64B9E424DD080231B041D
S1136D601943382D00DD07E11F2D00DD38E1202017
S1136D70431B9A460B0050468340994613004846ED
S1136D80EB401843030050468240501E8241E940C4
S1136D901A43BA1A611A9742A441170064420C1BA1
S1136DA0230262D56402650A002D00D1DFE02800C9
S1136DB0FBF798FF0300083B1F2B00DDD2E02022E5
S1136DC03C00D21A9D40D4409F4025439E4200DDA2
S1136DD0C4E09E1B731C1F2B00DDF1E02022380051
S1136DE02900D21AD840914097402C000143781EC4
S1136DF08741DC4000260F437B0709D00F233B402B
S1136E00042B05D03B1DBB42BF417F42E4191F0048
S1136E1023022CD5964B01369E4200D19AE045467A
S1136E20944BFF081C406007760564020743240B5B
S1136E30760D00212403230B0C0D8F4A24051C43DB
S1136E401440330523435B00ED075B082B433800F4
S1136E5019003CBC90469946A246AB46F8BD644630
S1136E60044300D111E2040067467B07C6D14546BE
S1136E706007FF080743E4087D4B9E4230D024039B
S1136E807605240B760DD4E7331A9A46002B78DD69
S1136E90002831D076488642AED0802000040143D9
S1136EA05346382B00DCE9E00A43511E8A41002195
S1136EB0D219BA42BF4109197C4217000C192302A6
S1136EC0D3D56B4B01369E4200D13AE10120694B88
S1136ED01C407B0807401F43E007074364088BE717
S1136EE023003B4300D1CBE180221203144324034B
S1136EF0240B9EE72E007FE70800104300D1B4E086
S1136F00581E002800D0DEE0BA18BA429B4164182B
S1136F105B42E418170001262302A6D50226D5E712
S1136F20002D6ED1701C4005400D012800DCF9E0F5
S1136F30B81A844687428041E51A40422D1A280235
S1136F4000D489E0D71BBA4292411C1B5242A51AB5
S1136F50D84629E74546002400276AE7454CF61A37
S1136F602C4049E73D002838854000272EE73800AB
S1136F70FBF7B8FE20301DE70A43511E8A41002169
S1136F8007E7002B00D0F3E0701C43055B0D012BD9
S1136F9000DCADE0364B984200D1D1E0BA18BA42D9
S1136FA0BF4164187F42E419E70752081743640895
S1136FB0060021E72E48854200D193E01D00D0E66B
S1136FC029001F3EF140202B00D18DE04022D31A2E
S1136FD09D402F437D1EAF4100240F43002644E70C
S1136FE02B000800203BD8400300202D00D17DE079
S1136FF04020451BA9400A43511E8A4100211A43DF
S1137000C7E6002E50D01A4EB04257D080266B42AD
S11370109946360434434B46382B00DDD6E01F2B0B
S113702000DD35E12026F51A2600AE40B2463E00CA
S1137030DE40AC46350056462E436546AF407D1EC5
S1137040AF41DC403743D71BBA4292410C1B52423A
S1137050A41A0600D846A3E6644667462C4300D02B
S1137060A2E600250026002706E71E00C4E6C04667
S1137070FF070000FFFF7FFFFFFF0F801F2B63DC74
S11370802020C31A080098409C46834653461000AB
S1137090D84003005846184363469A40531E9A4109
S11370A053460243D94003E726003E4306D0EB4350
S11370B09946002BC7D0944EB042ACD10C001700B7
S11370C00600D84698E6904B9A450BD08246E7E6F0
S11370D0002800D09EE01800104300D1E9E01C0015
S11370E01700D846884E87E6002572E7002182E71C
S11370F023003B43002E00D0ABE0002B00D1E7E09F
S11371000B00134300D177E6BA18BA42BF416418A2
S11371107F42E419230200D4F2E07C4B17001C40A8
S1137120060069E620003843002ED1D100285BD147
S11371301C00144300D1A8E01C001700D8465BE6ED
S113714006000024002797E650460B002038C34071
S113715099465346202B00D195E0402350461B1AF4
S113716099400A43511E8A414B4600211A439FE627
S1137170002E30D126003E4367D0DB439A46002BD5
S11371801CD0614EB04260D05346382B00DD96E0EF
S11371901F2B00DD9FE02026F31A26009E409C460C
S11371A0B34653463E00DE4033005E461E4363460C
S11371B09F407B1E9F415346DC403743BF18974294
S11371C0924164185242A418060078E627437C1EB4
S11371D0A741002437E74C4EB04236D080265B42AC
S11371E036049A463443CFE71800104300D103E62F
S11371F0B81A84466745AD41E01A6D42401B05024A
S113720000D42CE6D71BBA4292411C1B5242A41A4A
S1137210D846F1E51800104300D163E7F808670782
S113722007438020E4080003044208D0DD08054237
S113723005D1D208590711430F002C00D8467B0F03
S1137240E4001C43FF00304ED6E50C001700060096
S1137250D2E5002B38D00B00134300D142E7F808E5
S1137260670707438020E40800030442E7D0CB0803
S11372700342E4D1D208490711430F001C00DEE7A2
S113728000270024D5E500216BE700250027F3E55E
S11372904E462500203EF5404B462E00202B2DD097
S11372A04025ED1AAC4027437C1EA74100243743F8
S11372B0C9E6802400252403134E0027DCE5274378
S11372C07C1EA741002479E70C0017000E4E93E5BD
S11372D00C00170090E556462300203EF3409946E3
S11372E05346202B0ED0402356469B1B9C402743DD
S11372F07C1EA7414B4600241F435FE70024D2E7CE
S11373001700B2E50024F2E7FF070000FFFF7FFF4C
S1137310F0B557464546DE464E46E0B54C000E03F2
S113732087B0834692461D008046360B640DCF0F0E
S1137330002C4FD06F4B9C4235D08023420F1B044E
S1137340F600134333439946C30098466A4B00261C
S11373509C460023644403932B031B0B9B466B0046
S1137360ED0F50465B0D01955ED0624A934253D0B7
S11373705A46D1008022400F120402430A43934626
S11373805246D1005C4A9446002263443800684067
S113739084460290E41A16430F2E00D9B4E0574BEA
S11373A0B6009B599F460300334399466CD1002392
S11373B09846023308260393CEE7CB464146039A08
S11373C00197022A65D1019B4A4C9C460023002266
S11373D098466BE00300334399464ED0002E00D10B
S11373E0BCE13000FBF77EFC03000B3B1C2B00DDF3
S11373F0ACE11D22D31A5A460100DA4008398E4006
S11374001300334399465B468B40984600233C4C1B
S11374100026241A03939FE751465A46114329D163
S1137420002293460232B1E7594601431ED05B461F
S1137430002B00D19EE15846FBF754FC03000B3BA4
S11374401C2B00DD8FE102005946083A91408B461F
S11374501D21CB1A5146D9400B0059460B435146C6
S11374609B469140264B00221B1A8FE700230122E2
S11374709B468BE75146032288E700239846013355
S113748004260024039367E70323B14603930C26E1
S113749062E7032A00D15CE2019B012A00D0E4E107
S11374A013409C4600230024002298460021120326
S11374B0130B0A0D12051A432305124C40462240B1
S11374C0134362465B00D2075B081343190007B0FD
S11374D03CBC90469946A246AB46F0BD00238022B0
S11374E09C4612039846034CE0E70023014C00221B
S11374F09846DBE7FF07000001FCFFFF108F000048
S11375000DFCFFFFFFFF0F80D94500D939E100D101
S113751034E1002346464D469A46013C5B460A0E3A
S11375201B021A430B02170C039313041B0C3900A0
S1137530280090460193FBF773F90200019B8346F0
S11375405A43280039009146FBF7F0F9350C090439
S11375500D43A9450DD95B464544013BA84500D9D7
S11375603AE1A94500D837E102235B429C464544F1
S1137570E3444B46EB1A390018000493FBF750F927
S1137580019B05004343390004989946FBF7CEF963
S1137590330409041B0C0B43994509D943446A1E5F
S11375A0984500D91AE1994500D817E1023D4344B2
S11375B04A469B1A5A4612042A4303999346100CCE
S11375C00A0C914609045A46090C4E460D00120451
S11375D0120C4543059151437243704352190E0CEA
S11375E0B218954203D980256D02AC466044150C4F
S11375F009041204090C28185218834200D2CEE060
S113760000D1C8E01D1A53469E1AB2459241524217
S1137610AB1A9A46984500D117E139001800FBF7D8
S1137620FFF8019B05004343390050460493FBF7E0
S11376307DF904980B04310C1943884209D941445B
S11376406B1E884500D907E1884200D804E1023D59
S11376504144049BCB1A180039000493FBF7E0F86B
S1137660019B82464343390004980193FBF75EF97A
S113767001980B043104090C194388420DD953466F
S11376804144013B884500D9E8E0884200D8E5E060
S113769002235B429C464144E244019B2D04CE1AE2
S11376A051462943059D4F462A000B04080C1B0C28
S11376B05A4345437B4378435B19170CFB189D429F
S11376C003D980256D02AC4660441D0C12041B04D2
S11376D0120C28189B18864200D293E000D18EE049
S11376E001231943A04BE318002B00DC99E04A075F
S11376F000D09EE05A46D20106D55A469B4B1A400A
S113770080239346DB00E318994A934268DD012302
S1137710029A984C1A400023944698460022C5E6E3
S113772080224B46120313420AD05B46134206D111
S11377301A431203120BAC4688468E4CB6E64B46EF
S11377401A431203120BBC468A4CAFE603005A4696
S1137750283B9A4000239146984657E65846FBF743
S1137760C1FA203040E603005246283B9A400021EB
S1137770934677E6FBF7B6FA20305FE6884500D2F9
S1137780C7E64B46DE075D0843465B081E43434697
S1137790DB079A46C2E60025924500D333E7039EF1
S11377A05946B446E244B245AD416D424544EB18F6
S11377B00139984507D2984200D97FE000D1BCE056
S11377C01D1A8B461FE79845FAD1039D5545F2D9FA
S11377D043468B461D1A16E79B46CAE61500E7E6A4
S11377E05A46C90852070A435B0590465C0D5A463F
S11377F00123029952021940120B8C4656E6002BC3
S113780000D16FE746444A1EB04529D9110086428B
S113781000D065E7039A934200D061E762E7012153
S113782049420120C21A382A21DD029B03409C46AA
S113783038E60F220A40042A00D15BE70A00111D32
S1137840914292415242934454E7474BE318002B30
S1137850E5DD01225242F2E71D00FAE69A461CE7F2
S1137860B04239D86ED011003AE702933AE71F2AA2
S11378703CDC20239B1A0C005846994098404B1E30
S113788099415B46D440D340204308431A00430740
S113789009D00F230340042B05D00100081D8842A2
S11378A09B415B42D21813023AD50123029A012468
S11378B01A400023944698460022F7E502214942E3
S11378C08C46039DE344AC46E244AA45AD416D4277
S11378D04544ED182D1A96E68A1E03994D008D42F3
S11378E0894149424144761803958FE71F2040425D
S11378F0C31A5846D8400300202A28D040205D46A9
S1137900821A954029434A1E9141194307230022B4
S11379100B4009D00F2300220B400800042BBDD1DB
S1137920010053075202120BC90819430123884668
S11379300299002419408C46B8E55245BED88B46BE
S1137940002560E6039D9D42C6D3110062E7002531
S1137950D8E780225B4612031A43019B1203120BE1
S11379609C468846034CA1E5FF030000FFFFFFFE91
S1137970FE070000FF070000F0B54F464646D64616
S11379805C00C0B51F03DB0F9A46174B0E034D0076
S113799084468046360B6D0DC90F91463F0B640D2E
S11379A001209D4208D09C4201D0A5420BD01CBCB2
S11379B090469946A246F0BD63463343F7D1AC42A4
S11379C0F5D13A43F3D10120BE42F0D1C845EED1FE
S11379D0514507D0002DEAD163461E433000461EB0
S11379E0B041E4E70020E2E7FF070000F0B54546B8
S11379F0DE4657464E46E0B51F033D0B2C4F0E03A3
S1137A004C00AB465D008446360B640DC90F9046AE
S1137A106D0DDB0FBC422AD0254FBD422DD0002C6A
S1137A200FD130430700814678427841C0B2002D1F
S1137A3017D15F463A4314D14B460020002B0AD09D
S1137A4006E0002D02D15846024301D0994218D0D5
S1137A504842012108433CBC90469946A246AB46A5
S1137A60F0BD0028F2D00120013B1843F3E73700B2
S1137A700743D1D002204042EDE75F461743CED002
S1137A80F8E7AC42E4DC03DA481E01210843E2E7EC
S1137A905E45DDD806D000205E45DCD20123481EB9
S1137AA01843D8E7C445D3D80020C445F6D3D2E759
S1137AB0FF070000F0B54E464546DE4657465C00DB
S1137AC0E0B51F03DB0F99462A4B0E034D00C90F87
S1137AD08446360B6D0D8B4690463F0B640D9D42DC
S1137AE020D0244B9C4222D0002D12D1304343425B
S1137AF04341DBB2002C1FD0002B0CD04B4601209D
S1137B00013B034318003CBC90469946A246AB4651
S1137B10F0BD002C16D0CB4517D05B46594201234B
S1137B200B43EFE7310002230143EBD1D9E73900DE
S1137B3002231143E6D1D7E73A43DDD100230028DD
S1137B40E0D0EAE73A43E6D1E7E7A542E5DC05DB26
S1137B50BE42E2D807D00023BE42D3D25946012305
S1137B6001390B43CEE7C445D7D80023C445F5D328
S1137B70C8E7C046FF070000F0B557464546DE4655
S1137B804E46E0B50C0398464E00230B87B0070021
S1137B9092469B46760DCD0F002E6BD06D4B9E42C8
S1137BA035D080245B46420F2404DB0014431C437D
S1137BB0C3009946684BA3469C46002300276644AD
S1137BC0029343461C035A00DB0F5046240B520D0C
S1137BD0984600D176E05F4B9A426DD08023410FE6
S1137BE01B040B435C49E4008C461C43C300002087
S1137BF062444146B6186940721C01919446074399
S1137C000F2F00D9B0E0554ABF00D25997465B46C2
S1137C100343994600D087E000239B46023308279C
S1137C200293CEE742460192022867D0032800D18E
S1137C300EE2012800D062E10023002400229946CC
S1137C4001990140CDB2002112030B0D120B1B054B
S1137C501343434A240513401C436400ED0764089E
S1137C602C434846210007B03CBC90469946A246A6
S1137C70AB46F0BD034399464FD05B46002B00D181
S1137C8089E15846FBF72EF803000B3B1C2B00DD63
S1137C907AE11D22D31A3A0001005C46DA40083921
S1137CA08C4013008F4023439B46B94600232D4E3E
S1137CB00027361A029384E7534623432AD100242B
S1137CC0022096E75346234320D0002C00D157E1ED
S1137CD02000FBF707F803000B3B1C2B00DD49E1F8
S1137CE01D21CB1A51460200D9405346083A94400C
